{
	"simpleStorage.sol": {
		"SimpleStorage": {
			"abi": [
				{
					"inputs": [
						{
							"internalType": "string",
							"name": "_name",
							"type": "string"
						},
						{
							"internalType": "uint256",
							"name": "_favoriteNumber",
							"type": "uint256"
						},
						{
							"internalType": "bool",
							"name": "_isCool",
							"type": "bool"
						}
					],
					"name": "addPerson",
					"outputs": [],
					"stateMutability": "nonpayable",
					"type": "function"
				},
				{
					"inputs": [
						{
							"internalType": "uint256",
							"name": "",
							"type": "uint256"
						}
					],
					"name": "listPeople",
					"outputs": [
						{
							"internalType": "uint256",
							"name": "favoriteNumber",
							"type": "uint256"
						},
						{
							"internalType": "string",
							"name": "name",
							"type": "string"
						},
						{
							"internalType": "bool",
							"name": "isCool",
							"type": "bool"
						}
					],
					"stateMutability": "view",
					"type": "function"
				},
				{
					"inputs": [],
					"name": "retrieve",
					"outputs": [
						{
							"internalType": "uint256",
							"name": "",
							"type": "uint256"
						}
					],
					"stateMutability": "view",
					"type": "function"
				},
				{
					"inputs": [
						{
							"internalType": "uint256",
							"name": "_favoriteNumber",
							"type": "uint256"
						}
					],
					"name": "store",
					"outputs": [],
					"stateMutability": "nonpayable",
					"type": "function"
				}
			],
			"devdoc": {
				"kind": "dev",
				"methods": {},
				"version": 1
			},
			"evm": {
				"assembly": "    /* \"simpleStorage.sol\":93:1567  contract SimpleStorage {... */\n  mstore(0x40, 0x80)\n  callvalue\n  dup1\n  iszero\n  tag_1\n  jumpi\n  0x00\n  dup1\n  revert\ntag_1:\n  pop\n  dataSize(sub_0)\n  dup1\n  dataOffset(sub_0)\n  0x00\n  codecopy\n  0x00\n  return\nstop\n\nsub_0: assembly {\n        /* \"simpleStorage.sol\":93:1567  contract SimpleStorage {... */\n      mstore(0x40, 0x80)\n      callvalue\n      dup1\n      iszero\n      tag_1\n      jumpi\n      0x00\n      dup1\n      revert\n    tag_1:\n      pop\n      jumpi(tag_2, lt(calldatasize, 0x04))\n      shr(0xe0, calldataload(0x00))\n      dup1\n      0x032ce9aa\n      eq\n      tag_3\n      jumpi\n      dup1\n      0x2e64cec1\n      eq\n      tag_4\n      jumpi\n      dup1\n      0x452e7591\n      eq\n      tag_5\n      jumpi\n      dup1\n      0x6057361d\n      eq\n      tag_6\n      jumpi\n    tag_2:\n      0x00\n      dup1\n      revert\n        /* \"simpleStorage.sol\":1008:1312  function addPerson(string memory _name, uint256 _favoriteNumber, bool _isCool) public {... */\n    tag_3:\n      tag_7\n      0x04\n      dup1\n      calldatasize\n      sub\n      dup2\n      add\n      swap1\n      tag_8\n      swap2\n      swap1\n      tag_9\n      jump\t// in\n    tag_8:\n      tag_10\n      jump\t// in\n    tag_7:\n      stop\n        /* \"simpleStorage.sol\":1473:1564  function retrieve() public view returns (uint256){... */\n    tag_4:\n      tag_11\n      tag_12\n      jump\t// in\n    tag_11:\n      mload(0x40)\n      tag_13\n      swap2\n      swap1\n      tag_14\n      jump\t// in\n    tag_13:\n      mload(0x40)\n      dup1\n      swap2\n      sub\n      swap1\n      return\n        /* \"simpleStorage.sol\":973:999  Person[] public listPeople */\n    tag_5:\n      tag_15\n      0x04\n      dup1\n      calldatasize\n      sub\n      dup2\n      add\n      swap1\n      tag_16\n      swap2\n      swap1\n      tag_17\n      jump\t// in\n    tag_16:\n      tag_18\n      jump\t// in\n    tag_15:\n      mload(0x40)\n      tag_19\n      swap4\n      swap3\n      swap2\n      swap1\n      tag_20\n      jump\t// in\n    tag_19:\n      mload(0x40)\n      dup1\n      swap2\n      sub\n      swap1\n      return\n        /* \"simpleStorage.sol\":1320:1418  function store(uint256 _favoriteNumber) public{... */\n    tag_6:\n      tag_21\n      0x04\n      dup1\n      calldatasize\n      sub\n      dup2\n      add\n      swap1\n      tag_22\n      swap2\n      swap1\n      tag_17\n      jump\t// in\n    tag_22:\n      tag_23\n      jump\t// in\n    tag_21:\n      stop\n        /* \"simpleStorage.sol\":1008:1312  function addPerson(string memory _name, uint256 _favoriteNumber, bool _isCool) public {... */\n    tag_10:\n        /* \"simpleStorage.sol\":1105:1128  Person memory newPerson */\n      0x00\n        /* \"simpleStorage.sol\":1131:1170  Person(_favoriteNumber, _name, _isCool) */\n      mload(0x40)\n      dup1\n      0x60\n      add\n      0x40\n      mstore\n      dup1\n        /* \"simpleStorage.sol\":1138:1153  _favoriteNumber */\n      dup5\n        /* \"simpleStorage.sol\":1131:1170  Person(_favoriteNumber, _name, _isCool) */\n      dup2\n      mstore\n      0x20\n      add\n        /* \"simpleStorage.sol\":1155:1160  _name */\n      dup6\n        /* \"simpleStorage.sol\":1131:1170  Person(_favoriteNumber, _name, _isCool) */\n      dup2\n      mstore\n      0x20\n      add\n        /* \"simpleStorage.sol\":1162:1169  _isCool */\n      dup4\n        /* \"simpleStorage.sol\":1131:1170  Person(_favoriteNumber, _name, _isCool) */\n      iszero\n      iszero\n      dup2\n      mstore\n      pop\n        /* \"simpleStorage.sol\":1105:1170  Person memory newPerson = Person(_favoriteNumber, _name, _isCool) */\n      swap1\n      pop\n        /* \"simpleStorage.sol\":1181:1191  listPeople */\n      0x01\n        /* \"simpleStorage.sol\":1197:1206  newPerson */\n      dup2\n        /* \"simpleStorage.sol\":1181:1207  listPeople.push(newPerson) */\n      swap1\n      dup1\n      0x01\n      dup2\n      sload\n      add\n      dup1\n      dup3\n      sstore\n      dup1\n      swap2\n      pop\n      pop\n      0x01\n      swap1\n      sub\n      swap1\n      0x00\n      mstore\n      keccak256(0x00, 0x20)\n      swap1\n      0x03\n      mul\n      add\n      0x00\n      swap1\n      swap2\n      swap1\n      swap2\n      swap1\n      swap2\n      pop\n      0x00\n      dup3\n      add\n      mload\n      dup2\n      0x00\n      add\n      sstore\n      0x20\n      dup3\n      add\n      mload\n      dup2\n      0x01\n      add\n      swap1\n      dup2\n      tag_26\n      swap2\n      swap1\n      tag_27\n      jump\t// in\n    tag_26:\n      pop\n      0x40\n      dup3\n      add\n      mload\n      dup2\n      0x02\n      add\n      exp(0x0100, 0x00)\n      dup2\n      sload\n      dup2\n      0xff\n      mul\n      not\n      and\n      swap1\n      dup4\n      iszero\n      iszero\n      mul\n      or\n      swap1\n      sstore\n      pop\n      pop\n      pop\n        /* \"simpleStorage.sol\":1094:1312  {... */\n      pop\n        /* \"simpleStorage.sol\":1008:1312  function addPerson(string memory _name, uint256 _favoriteNumber, bool _isCool) public {... */\n      pop\n      pop\n      pop\n      jump\t// out\n        /* \"simpleStorage.sol\":1473:1564  function retrieve() public view returns (uint256){... */\n    tag_12:\n        /* \"simpleStorage.sol\":1514:1521  uint256 */\n      0x00\n        /* \"simpleStorage.sol\":1540:1556  myFavoriteNumber */\n      dup1\n      sload\n        /* \"simpleStorage.sol\":1533:1556  return myFavoriteNumber */\n      swap1\n      pop\n        /* \"simpleStorage.sol\":1473:1564  function retrieve() public view returns (uint256){... */\n      swap1\n      jump\t// out\n        /* \"simpleStorage.sol\":973:999  Person[] public listPeople */\n    tag_18:\n      0x01\n      dup2\n      dup2\n      sload\n      dup2\n      lt\n      tag_29\n      jumpi\n      0x00\n      dup1\n      revert\n    tag_29:\n      swap1\n      0x00\n      mstore\n      keccak256(0x00, 0x20)\n      swap1\n      0x03\n      mul\n      add\n      0x00\n      swap2\n      pop\n      swap1\n      pop\n      dup1\n      0x00\n      add\n      sload\n      swap1\n      dup1\n      0x01\n      add\n      dup1\n      sload\n      tag_31\n      swap1\n      tag_32\n      jump\t// in\n    tag_31:\n      dup1\n      0x1f\n      add\n      0x20\n      dup1\n      swap2\n      div\n      mul\n      0x20\n      add\n      mload(0x40)\n      swap1\n      dup2\n      add\n      0x40\n      mstore\n      dup1\n      swap3\n      swap2\n      swap1\n      dup2\n      dup2\n      mstore\n      0x20\n      add\n      dup3\n      dup1\n      sload\n      tag_33\n      swap1\n      tag_32\n      jump\t// in\n    tag_33:\n      dup1\n      iszero\n      tag_34\n      jumpi\n      dup1\n      0x1f\n      lt\n      tag_35\n      jumpi\n      0x0100\n      dup1\n      dup4\n      sload\n      div\n      mul\n      dup4\n      mstore\n      swap2\n      0x20\n      add\n      swap2\n      jump(tag_34)\n    tag_35:\n      dup3\n      add\n      swap2\n      swap1\n      0x00\n      mstore\n      keccak256(0x00, 0x20)\n      swap1\n    tag_36:\n      dup2\n      sload\n      dup2\n      mstore\n      swap1\n      0x01\n      add\n      swap1\n      0x20\n      add\n      dup1\n      dup4\n      gt\n      tag_36\n      jumpi\n      dup3\n      swap1\n      sub\n      0x1f\n      and\n      dup3\n      add\n      swap2\n    tag_34:\n      pop\n      pop\n      pop\n      pop\n      pop\n      swap1\n      dup1\n      0x02\n      add\n      0x00\n      swap1\n      sload\n      swap1\n      0x0100\n      exp\n      swap1\n      div\n      0xff\n      and\n      swap1\n      pop\n      dup4\n      jump\t// out\n        /* \"simpleStorage.sol\":1320:1418  function store(uint256 _favoriteNumber) public{... */\n    tag_23:\n        /* \"simpleStorage.sol\":1395:1410  _favoriteNumber */\n      dup1\n        /* \"simpleStorage.sol\":1376:1392  myFavoriteNumber */\n      0x00\n        /* \"simpleStorage.sol\":1376:1410  myFavoriteNumber = _favoriteNumber */\n      dup2\n      swap1\n      sstore\n      pop\n        /* \"simpleStorage.sol\":1320:1418  function store(uint256 _favoriteNumber) public{... */\n      pop\n      jump\t// out\n        /* \"#utility.yul\":7:82   */\n    tag_38:\n        /* \"#utility.yul\":40:46   */\n      0x00\n        /* \"#utility.yul\":73:75   */\n      0x40\n        /* \"#utility.yul\":67:76   */\n      mload\n        /* \"#utility.yul\":57:76   */\n      swap1\n      pop\n        /* \"#utility.yul\":7:82   */\n      swap1\n      jump\t// out\n        /* \"#utility.yul\":88:205   */\n    tag_39:\n        /* \"#utility.yul\":197:198   */\n      0x00\n        /* \"#utility.yul\":194:195   */\n      dup1\n        /* \"#utility.yul\":187:199   */\n      revert\n        /* \"#utility.yul\":211:328   */\n    tag_40:\n        /* \"#utility.yul\":320:321   */\n      0x00\n        /* \"#utility.yul\":317:318   */\n      dup1\n        /* \"#utility.yul\":310:322   */\n      revert\n        /* \"#utility.yul\":334:451   */\n    tag_41:\n        /* \"#utility.yul\":443:444   */\n      0x00\n        /* \"#utility.yul\":440:441   */\n      dup1\n        /* \"#utility.yul\":433:445   */\n      revert\n        /* \"#utility.yul\":457:574   */\n    tag_42:\n        /* \"#utility.yul\":566:567   */\n      0x00\n        /* \"#utility.yul\":563:564   */\n      dup1\n        /* \"#utility.yul\":556:568   */\n      revert\n        /* \"#utility.yul\":580:682   */\n    tag_43:\n        /* \"#utility.yul\":621:627   */\n      0x00\n        /* \"#utility.yul\":672:674   */\n      0x1f\n        /* \"#utility.yul\":668:675   */\n      not\n        /* \"#utility.yul\":663:665   */\n      0x1f\n        /* \"#utility.yul\":656:661   */\n      dup4\n        /* \"#utility.yul\":652:666   */\n      add\n        /* \"#utility.yul\":648:676   */\n      and\n        /* \"#utility.yul\":638:676   */\n      swap1\n      pop\n        /* \"#utility.yul\":580:682   */\n      swap2\n      swap1\n      pop\n      jump\t// out\n        /* \"#utility.yul\":688:868   */\n    tag_44:\n        /* \"#utility.yul\":736:813   */\n      0x4e487b7100000000000000000000000000000000000000000000000000000000\n        /* \"#utility.yul\":733:734   */\n      0x00\n        /* \"#utility.yul\":726:814   */\n      mstore\n        /* \"#utility.yul\":833:837   */\n      0x41\n        /* \"#utility.yul\":830:831   */\n      0x04\n        /* \"#utility.yul\":823:838   */\n      mstore\n        /* \"#utility.yul\":857:861   */\n      0x24\n        /* \"#utility.yul\":854:855   */\n      0x00\n        /* \"#utility.yul\":847:862   */\n      revert\n        /* \"#utility.yul\":874:1155   */\n    tag_45:\n        /* \"#utility.yul\":957:984   */\n      tag_88\n        /* \"#utility.yul\":979:983   */\n      dup3\n        /* \"#utility.yul\":957:984   */\n      tag_43\n      jump\t// in\n    tag_88:\n        /* \"#utility.yul\":949:955   */\n      dup2\n        /* \"#utility.yul\":945:985   */\n      add\n        /* \"#utility.yul\":1087:1093   */\n      dup2\n        /* \"#utility.yul\":1075:1085   */\n      dup2\n        /* \"#utility.yul\":1072:1094   */\n      lt\n        /* \"#utility.yul\":1051:1069   */\n      0xffffffffffffffff\n        /* \"#utility.yul\":1039:1049   */\n      dup3\n        /* \"#utility.yul\":1036:1070   */\n      gt\n        /* \"#utility.yul\":1033:1095   */\n      or\n        /* \"#utility.yul\":1030:1118   */\n      iszero\n      tag_89\n      jumpi\n        /* \"#utility.yul\":1098:1116   */\n      tag_90\n      tag_44\n      jump\t// in\n    tag_90:\n        /* \"#utility.yul\":1030:1118   */\n    tag_89:\n        /* \"#utility.yul\":1138:1148   */\n      dup1\n        /* \"#utility.yul\":1134:1136   */\n      0x40\n        /* \"#utility.yul\":1127:1149   */\n      mstore\n        /* \"#utility.yul\":917:1155   */\n      pop\n        /* \"#utility.yul\":874:1155   */\n      pop\n      pop\n      jump\t// out\n        /* \"#utility.yul\":1161:1290   */\n    tag_46:\n        /* \"#utility.yul\":1195:1201   */\n      0x00\n        /* \"#utility.yul\":1222:1242   */\n      tag_92\n      tag_38\n      jump\t// in\n    tag_92:\n        /* \"#utility.yul\":1212:1242   */\n      swap1\n      pop\n        /* \"#utility.yul\":1251:1284   */\n      tag_93\n        /* \"#utility.yul\":1279:1283   */\n      dup3\n        /* \"#utility.yul\":1271:1277   */\n      dup3\n        /* \"#utility.yul\":1251:1284   */\n      tag_45\n      jump\t// in\n    tag_93:\n        /* \"#utility.yul\":1161:1290   */\n      swap2\n      swap1\n      pop\n      jump\t// out\n        /* \"#utility.yul\":1296:1604   */\n    tag_47:\n        /* \"#utility.yul\":1358:1362   */\n      0x00\n        /* \"#utility.yul\":1448:1466   */\n      0xffffffffffffffff\n        /* \"#utility.yul\":1440:1446   */\n      dup3\n        /* \"#utility.yul\":1437:1467   */\n      gt\n        /* \"#utility.yul\":1434:1490   */\n      iszero\n      tag_95\n      jumpi\n        /* \"#utility.yul\":1470:1488   */\n      tag_96\n      tag_44\n      jump\t// in\n    tag_96:\n        /* \"#utility.yul\":1434:1490   */\n    tag_95:\n        /* \"#utility.yul\":1508:1537   */\n      tag_97\n        /* \"#utility.yul\":1530:1536   */\n      dup3\n        /* \"#utility.yul\":1508:1537   */\n      tag_43\n      jump\t// in\n    tag_97:\n        /* \"#utility.yul\":1500:1537   */\n      swap1\n      pop\n        /* \"#utility.yul\":1592:1596   */\n      0x20\n        /* \"#utility.yul\":1586:1590   */\n      dup2\n        /* \"#utility.yul\":1582:1597   */\n      add\n        /* \"#utility.yul\":1574:1597   */\n      swap1\n      pop\n        /* \"#utility.yul\":1296:1604   */\n      swap2\n      swap1\n      pop\n      jump\t// out\n        /* \"#utility.yul\":1610:1758   */\n    tag_48:\n        /* \"#utility.yul\":1708:1714   */\n      dup3\n        /* \"#utility.yul\":1703:1706   */\n      dup2\n        /* \"#utility.yul\":1698:1701   */\n      dup4\n        /* \"#utility.yul\":1685:1715   */\n      calldatacopy\n        /* \"#utility.yul\":1749:1750   */\n      0x00\n        /* \"#utility.yul\":1740:1746   */\n      dup4\n        /* \"#utility.yul\":1735:1738   */\n      dup4\n        /* \"#utility.yul\":1731:1747   */\n      add\n        /* \"#utility.yul\":1724:1751   */\n      mstore\n        /* \"#utility.yul\":1610:1758   */\n      pop\n      pop\n      pop\n      jump\t// out\n        /* \"#utility.yul\":1764:2189   */\n    tag_49:\n        /* \"#utility.yul\":1842:1847   */\n      0x00\n        /* \"#utility.yul\":1867:1933   */\n      tag_100\n        /* \"#utility.yul\":1883:1932   */\n      tag_101\n        /* \"#utility.yul\":1925:1931   */\n      dup5\n        /* \"#utility.yul\":1883:1932   */\n      tag_47\n      jump\t// in\n    tag_101:\n        /* \"#utility.yul\":1867:1933   */\n      tag_46\n      jump\t// in\n    tag_100:\n        /* \"#utility.yul\":1858:1933   */\n      swap1\n      pop\n        /* \"#utility.yul\":1956:1962   */\n      dup3\n        /* \"#utility.yul\":1949:1954   */\n      dup2\n        /* \"#utility.yul\":1942:1963   */\n      mstore\n        /* \"#utility.yul\":1994:1998   */\n      0x20\n        /* \"#utility.yul\":1987:1992   */\n      dup2\n        /* \"#utility.yul\":1983:1999   */\n      add\n        /* \"#utility.yul\":2032:2035   */\n      dup5\n        /* \"#utility.yul\":2023:2029   */\n      dup5\n        /* \"#utility.yul\":2018:2021   */\n      dup5\n        /* \"#utility.yul\":2014:2030   */\n      add\n        /* \"#utility.yul\":2011:2036   */\n      gt\n        /* \"#utility.yul\":2008:2120   */\n      iszero\n      tag_102\n      jumpi\n        /* \"#utility.yul\":2039:2118   */\n      tag_103\n      tag_42\n      jump\t// in\n    tag_103:\n        /* \"#utility.yul\":2008:2120   */\n    tag_102:\n        /* \"#utility.yul\":2129:2183   */\n      tag_104\n        /* \"#utility.yul\":2176:2182   */\n      dup5\n        /* \"#utility.yul\":2171:2174   */\n      dup3\n        /* \"#utility.yul\":2166:2169   */\n      dup6\n        /* \"#utility.yul\":2129:2183   */\n      tag_48\n      jump\t// in\n    tag_104:\n        /* \"#utility.yul\":1848:2189   */\n      pop\n        /* \"#utility.yul\":1764:2189   */\n      swap4\n      swap3\n      pop\n      pop\n      pop\n      jump\t// out\n        /* \"#utility.yul\":2209:2549   */\n    tag_50:\n        /* \"#utility.yul\":2265:2270   */\n      0x00\n        /* \"#utility.yul\":2314:2317   */\n      dup3\n        /* \"#utility.yul\":2307:2311   */\n      0x1f\n        /* \"#utility.yul\":2299:2305   */\n      dup4\n        /* \"#utility.yul\":2295:2312   */\n      add\n        /* \"#utility.yul\":2291:2318   */\n      slt\n        /* \"#utility.yul\":2281:2403   */\n      tag_106\n      jumpi\n        /* \"#utility.yul\":2322:2401   */\n      tag_107\n      tag_41\n      jump\t// in\n    tag_107:\n        /* \"#utility.yul\":2281:2403   */\n    tag_106:\n        /* \"#utility.yul\":2439:2445   */\n      dup2\n        /* \"#utility.yul\":2426:2446   */\n      calldataload\n        /* \"#utility.yul\":2464:2543   */\n      tag_108\n        /* \"#utility.yul\":2539:2542   */\n      dup5\n        /* \"#utility.yul\":2531:2537   */\n      dup3\n        /* \"#utility.yul\":2524:2528   */\n      0x20\n        /* \"#utility.yul\":2516:2522   */\n      dup7\n        /* \"#utility.yul\":2512:2529   */\n      add\n        /* \"#utility.yul\":2464:2543   */\n      tag_49\n      jump\t// in\n    tag_108:\n        /* \"#utility.yul\":2455:2543   */\n      swap2\n      pop\n        /* \"#utility.yul\":2271:2549   */\n      pop\n        /* \"#utility.yul\":2209:2549   */\n      swap3\n      swap2\n      pop\n      pop\n      jump\t// out\n        /* \"#utility.yul\":2555:2632   */\n    tag_51:\n        /* \"#utility.yul\":2592:2599   */\n      0x00\n        /* \"#utility.yul\":2621:2626   */\n      dup2\n        /* \"#utility.yul\":2610:2626   */\n      swap1\n      pop\n        /* \"#utility.yul\":2555:2632   */\n      swap2\n      swap1\n      pop\n      jump\t// out\n        /* \"#utility.yul\":2638:2760   */\n    tag_52:\n        /* \"#utility.yul\":2711:2735   */\n      tag_111\n        /* \"#utility.yul\":2729:2734   */\n      dup2\n        /* \"#utility.yul\":2711:2735   */\n      tag_51\n      jump\t// in\n    tag_111:\n        /* \"#utility.yul\":2704:2709   */\n      dup2\n        /* \"#utility.yul\":2701:2736   */\n      eq\n        /* \"#utility.yul\":2691:2754   */\n      tag_112\n      jumpi\n        /* \"#utility.yul\":2750:2751   */\n      0x00\n        /* \"#utility.yul\":2747:2748   */\n      dup1\n        /* \"#utility.yul\":2740:2752   */\n      revert\n        /* \"#utility.yul\":2691:2754   */\n    tag_112:\n        /* \"#utility.yul\":2638:2760   */\n      pop\n      jump\t// out\n        /* \"#utility.yul\":2766:2905   */\n    tag_53:\n        /* \"#utility.yul\":2812:2817   */\n      0x00\n        /* \"#utility.yul\":2850:2856   */\n      dup2\n        /* \"#utility.yul\":2837:2857   */\n      calldataload\n        /* \"#utility.yul\":2828:2857   */\n      swap1\n      pop\n        /* \"#utility.yul\":2866:2899   */\n      tag_114\n        /* \"#utility.yul\":2893:2898   */\n      dup2\n        /* \"#utility.yul\":2866:2899   */\n      tag_52\n      jump\t// in\n    tag_114:\n        /* \"#utility.yul\":2766:2905   */\n      swap3\n      swap2\n      pop\n      pop\n      jump\t// out\n        /* \"#utility.yul\":2911:3001   */\n    tag_54:\n        /* \"#utility.yul\":2945:2952   */\n      0x00\n        /* \"#utility.yul\":2988:2993   */\n      dup2\n        /* \"#utility.yul\":2981:2994   */\n      iszero\n        /* \"#utility.yul\":2974:2995   */\n      iszero\n        /* \"#utility.yul\":2963:2995   */\n      swap1\n      pop\n        /* \"#utility.yul\":2911:3001   */\n      swap2\n      swap1\n      pop\n      jump\t// out\n        /* \"#utility.yul\":3007:3123   */\n    tag_55:\n        /* \"#utility.yul\":3077:3098   */\n      tag_117\n        /* \"#utility.yul\":3092:3097   */\n      dup2\n        /* \"#utility.yul\":3077:3098   */\n      tag_54\n      jump\t// in\n    tag_117:\n        /* \"#utility.yul\":3070:3075   */\n      dup2\n        /* \"#utility.yul\":3067:3099   */\n      eq\n        /* \"#utility.yul\":3057:3117   */\n      tag_118\n      jumpi\n        /* \"#utility.yul\":3113:3114   */\n      0x00\n        /* \"#utility.yul\":3110:3111   */\n      dup1\n        /* \"#utility.yul\":3103:3115   */\n      revert\n        /* \"#utility.yul\":3057:3117   */\n    tag_118:\n        /* \"#utility.yul\":3007:3123   */\n      pop\n      jump\t// out\n        /* \"#utility.yul\":3129:3262   */\n    tag_56:\n        /* \"#utility.yul\":3172:3177   */\n      0x00\n        /* \"#utility.yul\":3210:3216   */\n      dup2\n        /* \"#utility.yul\":3197:3217   */\n      calldataload\n        /* \"#utility.yul\":3188:3217   */\n      swap1\n      pop\n        /* \"#utility.yul\":3226:3256   */\n      tag_120\n        /* \"#utility.yul\":3250:3255   */\n      dup2\n        /* \"#utility.yul\":3226:3256   */\n      tag_55\n      jump\t// in\n    tag_120:\n        /* \"#utility.yul\":3129:3262   */\n      swap3\n      swap2\n      pop\n      pop\n      jump\t// out\n        /* \"#utility.yul\":3268:4061   */\n    tag_9:\n        /* \"#utility.yul\":3352:3358   */\n      0x00\n        /* \"#utility.yul\":3360:3366   */\n      dup1\n        /* \"#utility.yul\":3368:3374   */\n      0x00\n        /* \"#utility.yul\":3417:3419   */\n      0x60\n        /* \"#utility.yul\":3405:3414   */\n      dup5\n        /* \"#utility.yul\":3396:3403   */\n      dup7\n        /* \"#utility.yul\":3392:3415   */\n      sub\n        /* \"#utility.yul\":3388:3420   */\n      slt\n        /* \"#utility.yul\":3385:3504   */\n      iszero\n      tag_122\n      jumpi\n        /* \"#utility.yul\":3423:3502   */\n      tag_123\n      tag_39\n      jump\t// in\n    tag_123:\n        /* \"#utility.yul\":3385:3504   */\n    tag_122:\n        /* \"#utility.yul\":3571:3572   */\n      0x00\n        /* \"#utility.yul\":3560:3569   */\n      dup5\n        /* \"#utility.yul\":3556:3573   */\n      add\n        /* \"#utility.yul\":3543:3574   */\n      calldataload\n        /* \"#utility.yul\":3601:3619   */\n      0xffffffffffffffff\n        /* \"#utility.yul\":3593:3599   */\n      dup2\n        /* \"#utility.yul\":3590:3620   */\n      gt\n        /* \"#utility.yul\":3587:3704   */\n      iszero\n      tag_124\n      jumpi\n        /* \"#utility.yul\":3623:3702   */\n      tag_125\n      tag_40\n      jump\t// in\n    tag_125:\n        /* \"#utility.yul\":3587:3704   */\n    tag_124:\n        /* \"#utility.yul\":3728:3791   */\n      tag_126\n        /* \"#utility.yul\":3783:3790   */\n      dup7\n        /* \"#utility.yul\":3774:3780   */\n      dup3\n        /* \"#utility.yul\":3763:3772   */\n      dup8\n        /* \"#utility.yul\":3759:3781   */\n      add\n        /* \"#utility.yul\":3728:3791   */\n      tag_50\n      jump\t// in\n    tag_126:\n        /* \"#utility.yul\":3718:3791   */\n      swap4\n      pop\n        /* \"#utility.yul\":3514:3801   */\n      pop\n        /* \"#utility.yul\":3840:3842   */\n      0x20\n        /* \"#utility.yul\":3866:3919   */\n      tag_127\n        /* \"#utility.yul\":3911:3918   */\n      dup7\n        /* \"#utility.yul\":3902:3908   */\n      dup3\n        /* \"#utility.yul\":3891:3900   */\n      dup8\n        /* \"#utility.yul\":3887:3909   */\n      add\n        /* \"#utility.yul\":3866:3919   */\n      tag_53\n      jump\t// in\n    tag_127:\n        /* \"#utility.yul\":3856:3919   */\n      swap3\n      pop\n        /* \"#utility.yul\":3811:3929   */\n      pop\n        /* \"#utility.yul\":3968:3970   */\n      0x40\n        /* \"#utility.yul\":3994:4044   */\n      tag_128\n        /* \"#utility.yul\":4036:4043   */\n      dup7\n        /* \"#utility.yul\":4027:4033   */\n      dup3\n        /* \"#utility.yul\":4016:4025   */\n      dup8\n        /* \"#utility.yul\":4012:4034   */\n      add\n        /* \"#utility.yul\":3994:4044   */\n      tag_56\n      jump\t// in\n    tag_128:\n        /* \"#utility.yul\":3984:4044   */\n      swap2\n      pop\n        /* \"#utility.yul\":3939:4054   */\n      pop\n        /* \"#utility.yul\":3268:4061   */\n      swap3\n      pop\n      swap3\n      pop\n      swap3\n      jump\t// out\n        /* \"#utility.yul\":4067:4185   */\n    tag_57:\n        /* \"#utility.yul\":4154:4178   */\n      tag_130\n        /* \"#utility.yul\":4172:4177   */\n      dup2\n        /* \"#utility.yul\":4154:4178   */\n      tag_51\n      jump\t// in\n    tag_130:\n        /* \"#utility.yul\":4149:4152   */\n      dup3\n        /* \"#utility.yul\":4142:4179   */\n      mstore\n        /* \"#utility.yul\":4067:4185   */\n      pop\n      pop\n      jump\t// out\n        /* \"#utility.yul\":4191:4413   */\n    tag_14:\n        /* \"#utility.yul\":4284:4288   */\n      0x00\n        /* \"#utility.yul\":4322:4324   */\n      0x20\n        /* \"#utility.yul\":4311:4320   */\n      dup3\n        /* \"#utility.yul\":4307:4325   */\n      add\n        /* \"#utility.yul\":4299:4325   */\n      swap1\n      pop\n        /* \"#utility.yul\":4335:4406   */\n      tag_132\n        /* \"#utility.yul\":4403:4404   */\n      0x00\n        /* \"#utility.yul\":4392:4401   */\n      dup4\n        /* \"#utility.yul\":4388:4405   */\n      add\n        /* \"#utility.yul\":4379:4385   */\n      dup5\n        /* \"#utility.yul\":4335:4406   */\n      tag_57\n      jump\t// in\n    tag_132:\n        /* \"#utility.yul\":4191:4413   */\n      swap3\n      swap2\n      pop\n      pop\n      jump\t// out\n        /* \"#utility.yul\":4419:4748   */\n    tag_17:\n        /* \"#utility.yul\":4478:4484   */\n      0x00\n        /* \"#utility.yul\":4527:4529   */\n      0x20\n        /* \"#utility.yul\":4515:4524   */\n      dup3\n        /* \"#utility.yul\":4506:4513   */\n      dup5\n        /* \"#utility.yul\":4502:4525   */\n      sub\n        /* \"#utility.yul\":4498:4530   */\n      slt\n        /* \"#utility.yul\":4495:4614   */\n      iszero\n      tag_134\n      jumpi\n        /* \"#utility.yul\":4533:4612   */\n      tag_135\n      tag_39\n      jump\t// in\n    tag_135:\n        /* \"#utility.yul\":4495:4614   */\n    tag_134:\n        /* \"#utility.yul\":4653:4654   */\n      0x00\n        /* \"#utility.yul\":4678:4731   */\n      tag_136\n        /* \"#utility.yul\":4723:4730   */\n      dup5\n        /* \"#utility.yul\":4714:4720   */\n      dup3\n        /* \"#utility.yul\":4703:4712   */\n      dup6\n        /* \"#utility.yul\":4699:4721   */\n      add\n        /* \"#utility.yul\":4678:4731   */\n      tag_53\n      jump\t// in\n    tag_136:\n        /* \"#utility.yul\":4668:4731   */\n      swap2\n      pop\n        /* \"#utility.yul\":4624:4741   */\n      pop\n        /* \"#utility.yul\":4419:4748   */\n      swap3\n      swap2\n      pop\n      pop\n      jump\t// out\n        /* \"#utility.yul\":4754:4853   */\n    tag_58:\n        /* \"#utility.yul\":4806:4812   */\n      0x00\n        /* \"#utility.yul\":4840:4845   */\n      dup2\n        /* \"#utility.yul\":4834:4846   */\n      mload\n        /* \"#utility.yul\":4824:4846   */\n      swap1\n      pop\n        /* \"#utility.yul\":4754:4853   */\n      swap2\n      swap1\n      pop\n      jump\t// out\n        /* \"#utility.yul\":4859:5028   */\n    tag_59:\n        /* \"#utility.yul\":4943:4954   */\n      0x00\n        /* \"#utility.yul\":4977:4983   */\n      dup3\n        /* \"#utility.yul\":4972:4975   */\n      dup3\n        /* \"#utility.yul\":4965:4984   */\n      mstore\n        /* \"#utility.yul\":5017:5021   */\n      0x20\n        /* \"#utility.yul\":5012:5015   */\n      dup3\n        /* \"#utility.yul\":5008:5022   */\n      add\n        /* \"#utility.yul\":4993:5022   */\n      swap1\n      pop\n        /* \"#utility.yul\":4859:5028   */\n      swap3\n      swap2\n      pop\n      pop\n      jump\t// out\n        /* \"#utility.yul\":5034:5173   */\n    tag_60:\n        /* \"#utility.yul\":5123:5129   */\n      dup3\n        /* \"#utility.yul\":5118:5121   */\n      dup2\n        /* \"#utility.yul\":5113:5116   */\n      dup4\n        /* \"#utility.yul\":5107:5130   */\n      mcopy\n        /* \"#utility.yul\":5164:5165   */\n      0x00\n        /* \"#utility.yul\":5155:5161   */\n      dup4\n        /* \"#utility.yul\":5150:5153   */\n      dup4\n        /* \"#utility.yul\":5146:5162   */\n      add\n        /* \"#utility.yul\":5139:5166   */\n      mstore\n        /* \"#utility.yul\":5034:5173   */\n      pop\n      pop\n      pop\n      jump\t// out\n        /* \"#utility.yul\":5179:5556   */\n    tag_61:\n        /* \"#utility.yul\":5267:5270   */\n      0x00\n        /* \"#utility.yul\":5295:5334   */\n      tag_141\n        /* \"#utility.yul\":5328:5333   */\n      dup3\n        /* \"#utility.yul\":5295:5334   */\n      tag_58\n      jump\t// in\n    tag_141:\n        /* \"#utility.yul\":5350:5421   */\n      tag_142\n        /* \"#utility.yul\":5414:5420   */\n      dup2\n        /* \"#utility.yul\":5409:5412   */\n      dup6\n        /* \"#utility.yul\":5350:5421   */\n      tag_59\n      jump\t// in\n    tag_142:\n        /* \"#utility.yul\":5343:5421   */\n      swap4\n      pop\n        /* \"#utility.yul\":5430:5495   */\n      tag_143\n        /* \"#utility.yul\":5488:5494   */\n      dup2\n        /* \"#utility.yul\":5483:5486   */\n      dup6\n        /* \"#utility.yul\":5476:5480   */\n      0x20\n        /* \"#utility.yul\":5469:5474   */\n      dup7\n        /* \"#utility.yul\":5465:5481   */\n      add\n        /* \"#utility.yul\":5430:5495   */\n      tag_60\n      jump\t// in\n    tag_143:\n        /* \"#utility.yul\":5520:5549   */\n      tag_144\n        /* \"#utility.yul\":5542:5548   */\n      dup2\n        /* \"#utility.yul\":5520:5549   */\n      tag_43\n      jump\t// in\n    tag_144:\n        /* \"#utility.yul\":5515:5518   */\n      dup5\n        /* \"#utility.yul\":5511:5550   */\n      add\n        /* \"#utility.yul\":5504:5550   */\n      swap2\n      pop\n        /* \"#utility.yul\":5271:5556   */\n      pop\n        /* \"#utility.yul\":5179:5556   */\n      swap3\n      swap2\n      pop\n      pop\n      jump\t// out\n        /* \"#utility.yul\":5562:5671   */\n    tag_62:\n        /* \"#utility.yul\":5643:5664   */\n      tag_146\n        /* \"#utility.yul\":5658:5663   */\n      dup2\n        /* \"#utility.yul\":5643:5664   */\n      tag_54\n      jump\t// in\n    tag_146:\n        /* \"#utility.yul\":5638:5641   */\n      dup3\n        /* \"#utility.yul\":5631:5665   */\n      mstore\n        /* \"#utility.yul\":5562:5671   */\n      pop\n      pop\n      jump\t// out\n        /* \"#utility.yul\":5677:6198   */\n    tag_20:\n        /* \"#utility.yul\":5840:5844   */\n      0x00\n        /* \"#utility.yul\":5878:5880   */\n      0x60\n        /* \"#utility.yul\":5867:5876   */\n      dup3\n        /* \"#utility.yul\":5863:5881   */\n      add\n        /* \"#utility.yul\":5855:5881   */\n      swap1\n      pop\n        /* \"#utility.yul\":5891:5962   */\n      tag_148\n        /* \"#utility.yul\":5959:5960   */\n      0x00\n        /* \"#utility.yul\":5948:5957   */\n      dup4\n        /* \"#utility.yul\":5944:5961   */\n      add\n        /* \"#utility.yul\":5935:5941   */\n      dup7\n        /* \"#utility.yul\":5891:5962   */\n      tag_57\n      jump\t// in\n    tag_148:\n        /* \"#utility.yul\":6009:6018   */\n      dup2\n        /* \"#utility.yul\":6003:6007   */\n      dup2\n        /* \"#utility.yul\":5999:6019   */\n      sub\n        /* \"#utility.yul\":5994:5996   */\n      0x20\n        /* \"#utility.yul\":5983:5992   */\n      dup4\n        /* \"#utility.yul\":5979:5997   */\n      add\n        /* \"#utility.yul\":5972:6020   */\n      mstore\n        /* \"#utility.yul\":6037:6115   */\n      tag_149\n        /* \"#utility.yul\":6110:6114   */\n      dup2\n        /* \"#utility.yul\":6101:6107   */\n      dup6\n        /* \"#utility.yul\":6037:6115   */\n      tag_61\n      jump\t// in\n    tag_149:\n        /* \"#utility.yul\":6029:6115   */\n      swap1\n      pop\n        /* \"#utility.yul\":6125:6191   */\n      tag_150\n        /* \"#utility.yul\":6187:6189   */\n      0x40\n        /* \"#utility.yul\":6176:6185   */\n      dup4\n        /* \"#utility.yul\":6172:6190   */\n      add\n        /* \"#utility.yul\":6163:6169   */\n      dup5\n        /* \"#utility.yul\":6125:6191   */\n      tag_62\n      jump\t// in\n    tag_150:\n        /* \"#utility.yul\":5677:6198   */\n      swap5\n      swap4\n      pop\n      pop\n      pop\n      pop\n      jump\t// out\n        /* \"#utility.yul\":6204:6384   */\n    tag_63:\n        /* \"#utility.yul\":6252:6329   */\n      0x4e487b7100000000000000000000000000000000000000000000000000000000\n        /* \"#utility.yul\":6249:6250   */\n      0x00\n        /* \"#utility.yul\":6242:6330   */\n      mstore\n        /* \"#utility.yul\":6349:6353   */\n      0x22\n        /* \"#utility.yul\":6346:6347   */\n      0x04\n        /* \"#utility.yul\":6339:6354   */\n      mstore\n        /* \"#utility.yul\":6373:6377   */\n      0x24\n        /* \"#utility.yul\":6370:6371   */\n      0x00\n        /* \"#utility.yul\":6363:6378   */\n      revert\n        /* \"#utility.yul\":6390:6710   */\n    tag_32:\n        /* \"#utility.yul\":6434:6440   */\n      0x00\n        /* \"#utility.yul\":6471:6472   */\n      0x02\n        /* \"#utility.yul\":6465:6469   */\n      dup3\n        /* \"#utility.yul\":6461:6473   */\n      div\n        /* \"#utility.yul\":6451:6473   */\n      swap1\n      pop\n        /* \"#utility.yul\":6518:6519   */\n      0x01\n        /* \"#utility.yul\":6512:6516   */\n      dup3\n        /* \"#utility.yul\":6508:6520   */\n      and\n        /* \"#utility.yul\":6539:6557   */\n      dup1\n        /* \"#utility.yul\":6529:6610   */\n      tag_153\n      jumpi\n        /* \"#utility.yul\":6595:6599   */\n      0x7f\n        /* \"#utility.yul\":6587:6593   */\n      dup3\n        /* \"#utility.yul\":6583:6600   */\n      and\n        /* \"#utility.yul\":6573:6600   */\n      swap2\n      pop\n        /* \"#utility.yul\":6529:6610   */\n    tag_153:\n        /* \"#utility.yul\":6657:6659   */\n      0x20\n        /* \"#utility.yul\":6649:6655   */\n      dup3\n        /* \"#utility.yul\":6646:6660   */\n      lt\n        /* \"#utility.yul\":6626:6644   */\n      dup2\n        /* \"#utility.yul\":6623:6661   */\n      sub\n        /* \"#utility.yul\":6620:6704   */\n      tag_154\n      jumpi\n        /* \"#utility.yul\":6676:6694   */\n      tag_155\n      tag_63\n      jump\t// in\n    tag_155:\n        /* \"#utility.yul\":6620:6704   */\n    tag_154:\n        /* \"#utility.yul\":6441:6710   */\n      pop\n        /* \"#utility.yul\":6390:6710   */\n      swap2\n      swap1\n      pop\n      jump\t// out\n        /* \"#utility.yul\":6716:6857   */\n    tag_64:\n        /* \"#utility.yul\":6765:6769   */\n      0x00\n        /* \"#utility.yul\":6788:6791   */\n      dup2\n        /* \"#utility.yul\":6780:6791   */\n      swap1\n      pop\n        /* \"#utility.yul\":6811:6814   */\n      dup2\n        /* \"#utility.yul\":6808:6809   */\n      0x00\n        /* \"#utility.yul\":6801:6815   */\n      mstore\n        /* \"#utility.yul\":6845:6849   */\n      0x20\n        /* \"#utility.yul\":6842:6843   */\n      0x00\n        /* \"#utility.yul\":6832:6850   */\n      keccak256\n        /* \"#utility.yul\":6824:6850   */\n      swap1\n      pop\n        /* \"#utility.yul\":6716:6857   */\n      swap2\n      swap1\n      pop\n      jump\t// out\n        /* \"#utility.yul\":6863:6956   */\n    tag_65:\n        /* \"#utility.yul\":6900:6906   */\n      0x00\n        /* \"#utility.yul\":6947:6949   */\n      0x20\n        /* \"#utility.yul\":6942:6944   */\n      0x1f\n        /* \"#utility.yul\":6935:6940   */\n      dup4\n        /* \"#utility.yul\":6931:6945   */\n      add\n        /* \"#utility.yul\":6927:6950   */\n      div\n        /* \"#utility.yul\":6917:6950   */\n      swap1\n      pop\n        /* \"#utility.yul\":6863:6956   */\n      swap2\n      swap1\n      pop\n      jump\t// out\n        /* \"#utility.yul\":6962:7069   */\n    tag_66:\n        /* \"#utility.yul\":7006:7014   */\n      0x00\n        /* \"#utility.yul\":7056:7061   */\n      dup3\n        /* \"#utility.yul\":7050:7054   */\n      dup3\n        /* \"#utility.yul\":7046:7062   */\n      shl\n        /* \"#utility.yul\":7025:7062   */\n      swap1\n      pop\n        /* \"#utility.yul\":6962:7069   */\n      swap3\n      swap2\n      pop\n      pop\n      jump\t// out\n        /* \"#utility.yul\":7075:7468   */\n    tag_67:\n        /* \"#utility.yul\":7144:7150   */\n      0x00\n        /* \"#utility.yul\":7194:7195   */\n      0x08\n        /* \"#utility.yul\":7182:7192   */\n      dup4\n        /* \"#utility.yul\":7178:7196   */\n      mul\n        /* \"#utility.yul\":7217:7314   */\n      tag_160\n        /* \"#utility.yul\":7247:7313   */\n      0xffffffffffffffffffffffffffffffffffffffffffffffffffffffffffffffff\n        /* \"#utility.yul\":7236:7245   */\n      dup3\n        /* \"#utility.yul\":7217:7314   */\n      tag_66\n      jump\t// in\n    tag_160:\n        /* \"#utility.yul\":7335:7374   */\n      tag_161\n        /* \"#utility.yul\":7365:7373   */\n      dup7\n        /* \"#utility.yul\":7354:7363   */\n      dup4\n        /* \"#utility.yul\":7335:7374   */\n      tag_66\n      jump\t// in\n    tag_161:\n        /* \"#utility.yul\":7323:7374   */\n      swap6\n      pop\n        /* \"#utility.yul\":7407:7411   */\n      dup1\n        /* \"#utility.yul\":7403:7412   */\n      not\n        /* \"#utility.yul\":7396:7401   */\n      dup5\n        /* \"#utility.yul\":7392:7413   */\n      and\n        /* \"#utility.yul\":7383:7413   */\n      swap4\n      pop\n        /* \"#utility.yul\":7456:7460   */\n      dup1\n        /* \"#utility.yul\":7446:7454   */\n      dup7\n        /* \"#utility.yul\":7442:7461   */\n      and\n        /* \"#utility.yul\":7435:7440   */\n      dup5\n        /* \"#utility.yul\":7432:7462   */\n      or\n        /* \"#utility.yul\":7422:7462   */\n      swap3\n      pop\n        /* \"#utility.yul\":7151:7468   */\n      pop\n      pop\n        /* \"#utility.yul\":7075:7468   */\n      swap4\n      swap3\n      pop\n      pop\n      pop\n      jump\t// out\n        /* \"#utility.yul\":7474:7534   */\n    tag_68:\n        /* \"#utility.yul\":7502:7505   */\n      0x00\n        /* \"#utility.yul\":7523:7528   */\n      dup2\n        /* \"#utility.yul\":7516:7528   */\n      swap1\n      pop\n        /* \"#utility.yul\":7474:7534   */\n      swap2\n      swap1\n      pop\n      jump\t// out\n        /* \"#utility.yul\":7540:7682   */\n    tag_69:\n        /* \"#utility.yul\":7590:7599   */\n      0x00\n        /* \"#utility.yul\":7623:7676   */\n      tag_164\n        /* \"#utility.yul\":7641:7675   */\n      tag_165\n        /* \"#utility.yul\":7650:7674   */\n      tag_166\n        /* \"#utility.yul\":7668:7673   */\n      dup5\n        /* \"#utility.yul\":7650:7674   */\n      tag_51\n      jump\t// in\n    tag_166:\n        /* \"#utility.yul\":7641:7675   */\n      tag_68\n      jump\t// in\n    tag_165:\n        /* \"#utility.yul\":7623:7676   */\n      tag_51\n      jump\t// in\n    tag_164:\n        /* \"#utility.yul\":7610:7676   */\n      swap1\n      pop\n        /* \"#utility.yul\":7540:7682   */\n      swap2\n      swap1\n      pop\n      jump\t// out\n        /* \"#utility.yul\":7688:7763   */\n    tag_70:\n        /* \"#utility.yul\":7731:7734   */\n      0x00\n        /* \"#utility.yul\":7752:7757   */\n      dup2\n        /* \"#utility.yul\":7745:7757   */\n      swap1\n      pop\n        /* \"#utility.yul\":7688:7763   */\n      swap2\n      swap1\n      pop\n      jump\t// out\n        /* \"#utility.yul\":7769:8038   */\n    tag_71:\n        /* \"#utility.yul\":7879:7918   */\n      tag_169\n        /* \"#utility.yul\":7910:7917   */\n      dup4\n        /* \"#utility.yul\":7879:7918   */\n      tag_69\n      jump\t// in\n    tag_169:\n        /* \"#utility.yul\":7940:8031   */\n      tag_170\n        /* \"#utility.yul\":7989:8030   */\n      tag_171\n        /* \"#utility.yul\":8013:8029   */\n      dup3\n        /* \"#utility.yul\":7989:8030   */\n      tag_70\n      jump\t// in\n    tag_171:\n        /* \"#utility.yul\":7981:7987   */\n      dup5\n        /* \"#utility.yul\":7974:7978   */\n      dup5\n        /* \"#utility.yul\":7968:7979   */\n      sload\n        /* \"#utility.yul\":7940:8031   */\n      tag_67\n      jump\t// in\n    tag_170:\n        /* \"#utility.yul\":7934:7938   */\n      dup3\n        /* \"#utility.yul\":7927:8032   */\n      sstore\n        /* \"#utility.yul\":7845:8038   */\n      pop\n        /* \"#utility.yul\":7769:8038   */\n      pop\n      pop\n      pop\n      jump\t// out\n        /* \"#utility.yul\":8044:8117   */\n    tag_72:\n        /* \"#utility.yul\":8089:8092   */\n      0x00\n        /* \"#utility.yul\":8044:8117   */\n      swap1\n      jump\t// out\n        /* \"#utility.yul\":8123:8312   */\n    tag_73:\n        /* \"#utility.yul\":8200:8232   */\n      tag_174\n      tag_72\n      jump\t// in\n    tag_174:\n        /* \"#utility.yul\":8241:8306   */\n      tag_175\n        /* \"#utility.yul\":8299:8305   */\n      dup2\n        /* \"#utility.yul\":8291:8297   */\n      dup5\n        /* \"#utility.yul\":8285:8289   */\n      dup5\n        /* \"#utility.yul\":8241:8306   */\n      tag_71\n      jump\t// in\n    tag_175:\n        /* \"#utility.yul\":8176:8312   */\n      pop\n        /* \"#utility.yul\":8123:8312   */\n      pop\n      pop\n      jump\t// out\n        /* \"#utility.yul\":8318:8504   */\n    tag_74:\n        /* \"#utility.yul\":8378:8498   */\n    tag_177:\n        /* \"#utility.yul\":8395:8398   */\n      dup2\n        /* \"#utility.yul\":8388:8393   */\n      dup2\n        /* \"#utility.yul\":8385:8399   */\n      lt\n        /* \"#utility.yul\":8378:8498   */\n      iszero\n      tag_179\n      jumpi\n        /* \"#utility.yul\":8449:8488   */\n      tag_180\n        /* \"#utility.yul\":8486:8487   */\n      0x00\n        /* \"#utility.yul\":8479:8484   */\n      dup3\n        /* \"#utility.yul\":8449:8488   */\n      tag_73\n      jump\t// in\n    tag_180:\n        /* \"#utility.yul\":8422:8423   */\n      0x01\n        /* \"#utility.yul\":8415:8420   */\n      dup2\n        /* \"#utility.yul\":8411:8424   */\n      add\n        /* \"#utility.yul\":8402:8424   */\n      swap1\n      pop\n        /* \"#utility.yul\":8378:8498   */\n      jump(tag_177)\n    tag_179:\n        /* \"#utility.yul\":8318:8504   */\n      pop\n      pop\n      jump\t// out\n        /* \"#utility.yul\":8510:9053   */\n    tag_75:\n        /* \"#utility.yul\":8611:8613   */\n      0x1f\n        /* \"#utility.yul\":8606:8609   */\n      dup3\n        /* \"#utility.yul\":8603:8614   */\n      gt\n        /* \"#utility.yul\":8600:9046   */\n      iszero\n      tag_182\n      jumpi\n        /* \"#utility.yul\":8645:8683   */\n      tag_183\n        /* \"#utility.yul\":8677:8682   */\n      dup2\n        /* \"#utility.yul\":8645:8683   */\n      tag_64\n      jump\t// in\n    tag_183:\n        /* \"#utility.yul\":8729:8758   */\n      tag_184\n        /* \"#utility.yul\":8747:8757   */\n      dup5\n        /* \"#utility.yul\":8729:8758   */\n      tag_65\n      jump\t// in\n    tag_184:\n        /* \"#utility.yul\":8719:8727   */\n      dup2\n        /* \"#utility.yul\":8715:8759   */\n      add\n        /* \"#utility.yul\":8912:8914   */\n      0x20\n        /* \"#utility.yul\":8900:8910   */\n      dup6\n        /* \"#utility.yul\":8897:8915   */\n      lt\n        /* \"#utility.yul\":8894:8943   */\n      iszero\n      tag_185\n      jumpi\n        /* \"#utility.yul\":8933:8941   */\n      dup2\n        /* \"#utility.yul\":8918:8941   */\n      swap1\n      pop\n        /* \"#utility.yul\":8894:8943   */\n    tag_185:\n        /* \"#utility.yul\":8956:9036   */\n      tag_186\n        /* \"#utility.yul\":9012:9034   */\n      tag_187\n        /* \"#utility.yul\":9030:9033   */\n      dup6\n        /* \"#utility.yul\":9012:9034   */\n      tag_65\n      jump\t// in\n    tag_187:\n        /* \"#utility.yul\":9002:9010   */\n      dup4\n        /* \"#utility.yul\":8998:9035   */\n      add\n        /* \"#utility.yul\":8985:8996   */\n      dup3\n        /* \"#utility.yul\":8956:9036   */\n      tag_74\n      jump\t// in\n    tag_186:\n        /* \"#utility.yul\":8615:9046   */\n      pop\n      pop\n        /* \"#utility.yul\":8600:9046   */\n    tag_182:\n        /* \"#utility.yul\":8510:9053   */\n      pop\n      pop\n      pop\n      jump\t// out\n        /* \"#utility.yul\":9059:9176   */\n    tag_76:\n        /* \"#utility.yul\":9113:9121   */\n      0x00\n        /* \"#utility.yul\":9163:9168   */\n      dup3\n        /* \"#utility.yul\":9157:9161   */\n      dup3\n        /* \"#utility.yul\":9153:9169   */\n      shr\n        /* \"#utility.yul\":9132:9169   */\n      swap1\n      pop\n        /* \"#utility.yul\":9059:9176   */\n      swap3\n      swap2\n      pop\n      pop\n      jump\t// out\n        /* \"#utility.yul\":9182:9351   */\n    tag_77:\n        /* \"#utility.yul\":9226:9232   */\n      0x00\n        /* \"#utility.yul\":9259:9310   */\n      tag_190\n        /* \"#utility.yul\":9307:9308   */\n      0x00\n        /* \"#utility.yul\":9303:9309   */\n      not\n        /* \"#utility.yul\":9295:9300   */\n      dup5\n        /* \"#utility.yul\":9292:9293   */\n      0x08\n        /* \"#utility.yul\":9288:9301   */\n      mul\n        /* \"#utility.yul\":9259:9310   */\n      tag_76\n      jump\t// in\n    tag_190:\n        /* \"#utility.yul\":9255:9311   */\n      not\n        /* \"#utility.yul\":9340:9344   */\n      dup1\n        /* \"#utility.yul\":9334:9338   */\n      dup4\n        /* \"#utility.yul\":9330:9345   */\n      and\n        /* \"#utility.yul\":9320:9345   */\n      swap2\n      pop\n        /* \"#utility.yul\":9233:9351   */\n      pop\n        /* \"#utility.yul\":9182:9351   */\n      swap3\n      swap2\n      pop\n      pop\n      jump\t// out\n        /* \"#utility.yul\":9356:9651   */\n    tag_78:\n        /* \"#utility.yul\":9432:9436   */\n      0x00\n        /* \"#utility.yul\":9578:9607   */\n      tag_192\n        /* \"#utility.yul\":9603:9606   */\n      dup4\n        /* \"#utility.yul\":9597:9601   */\n      dup4\n        /* \"#utility.yul\":9578:9607   */\n      tag_77\n      jump\t// in\n    tag_192:\n        /* \"#utility.yul\":9570:9607   */\n      swap2\n      pop\n        /* \"#utility.yul\":9640:9643   */\n      dup3\n        /* \"#utility.yul\":9637:9638   */\n      0x02\n        /* \"#utility.yul\":9633:9644   */\n      mul\n        /* \"#utility.yul\":9627:9631   */\n      dup3\n        /* \"#utility.yul\":9624:9645   */\n      or\n        /* \"#utility.yul\":9616:9645   */\n      swap1\n      pop\n        /* \"#utility.yul\":9356:9651   */\n      swap3\n      swap2\n      pop\n      pop\n      jump\t// out\n        /* \"#utility.yul\":9656:11051   */\n    tag_27:\n        /* \"#utility.yul\":9773:9810   */\n      tag_194\n        /* \"#utility.yul\":9806:9809   */\n      dup3\n        /* \"#utility.yul\":9773:9810   */\n      tag_58\n      jump\t// in\n    tag_194:\n        /* \"#utility.yul\":9875:9893   */\n      0xffffffffffffffff\n        /* \"#utility.yul\":9867:9873   */\n      dup2\n        /* \"#utility.yul\":9864:9894   */\n      gt\n        /* \"#utility.yul\":9861:9917   */\n      iszero\n      tag_195\n      jumpi\n        /* \"#utility.yul\":9897:9915   */\n      tag_196\n      tag_44\n      jump\t// in\n    tag_196:\n        /* \"#utility.yul\":9861:9917   */\n    tag_195:\n        /* \"#utility.yul\":9941:9979   */\n      tag_197\n        /* \"#utility.yul\":9973:9977   */\n      dup3\n        /* \"#utility.yul\":9967:9978   */\n      sload\n        /* \"#utility.yul\":9941:9979   */\n      tag_32\n      jump\t// in\n    tag_197:\n        /* \"#utility.yul\":10026:10093   */\n      tag_198\n        /* \"#utility.yul\":10086:10092   */\n      dup3\n        /* \"#utility.yul\":10078:10084   */\n      dup3\n        /* \"#utility.yul\":10072:10076   */\n      dup6\n        /* \"#utility.yul\":10026:10093   */\n      tag_75\n      jump\t// in\n    tag_198:\n        /* \"#utility.yul\":10120:10121   */\n      0x00\n        /* \"#utility.yul\":10144:10148   */\n      0x20\n        /* \"#utility.yul\":10131:10148   */\n      swap1\n      pop\n        /* \"#utility.yul\":10176:10178   */\n      0x1f\n        /* \"#utility.yul\":10168:10174   */\n      dup4\n        /* \"#utility.yul\":10165:10179   */\n      gt\n        /* \"#utility.yul\":10193:10194   */\n      0x01\n        /* \"#utility.yul\":10188:10806   */\n      dup2\n      eq\n      tag_200\n      jumpi\n        /* \"#utility.yul\":10850:10851   */\n      0x00\n        /* \"#utility.yul\":10867:10873   */\n      dup5\n        /* \"#utility.yul\":10864:10941   */\n      iszero\n      tag_201\n      jumpi\n        /* \"#utility.yul\":10916:10925   */\n      dup3\n        /* \"#utility.yul\":10911:10914   */\n      dup8\n        /* \"#utility.yul\":10907:10926   */\n      add\n        /* \"#utility.yul\":10901:10927   */\n      mload\n        /* \"#utility.yul\":10892:10927   */\n      swap1\n      pop\n        /* \"#utility.yul\":10864:10941   */\n    tag_201:\n        /* \"#utility.yul\":10967:11034   */\n      tag_202\n        /* \"#utility.yul\":11027:11033   */\n      dup6\n        /* \"#utility.yul\":11020:11025   */\n      dup3\n        /* \"#utility.yul\":10967:11034   */\n      tag_78\n      jump\t// in\n    tag_202:\n        /* \"#utility.yul\":10961:10965   */\n      dup7\n        /* \"#utility.yul\":10954:11035   */\n      sstore\n        /* \"#utility.yul\":10823:11045   */\n      pop\n        /* \"#utility.yul\":10158:11045   */\n      jump(tag_199)\n        /* \"#utility.yul\":10188:10806   */\n    tag_200:\n        /* \"#utility.yul\":10240:10244   */\n      0x1f\n        /* \"#utility.yul\":10236:10245   */\n      not\n        /* \"#utility.yul\":10228:10234   */\n      dup5\n        /* \"#utility.yul\":10224:10246   */\n      and\n        /* \"#utility.yul\":10274:10311   */\n      tag_203\n        /* \"#utility.yul\":10306:10310   */\n      dup7\n        /* \"#utility.yul\":10274:10311   */\n      tag_64\n      jump\t// in\n    tag_203:\n        /* \"#utility.yul\":10333:10334   */\n      0x00\n        /* \"#utility.yul\":10347:10555   */\n    tag_204:\n        /* \"#utility.yul\":10361:10368   */\n      dup3\n        /* \"#utility.yul\":10358:10359   */\n      dup2\n        /* \"#utility.yul\":10355:10369   */\n      lt\n        /* \"#utility.yul\":10347:10555   */\n      iszero\n      tag_206\n      jumpi\n        /* \"#utility.yul\":10440:10449   */\n      dup5\n        /* \"#utility.yul\":10435:10438   */\n      dup10\n        /* \"#utility.yul\":10431:10450   */\n      add\n        /* \"#utility.yul\":10425:10451   */\n      mload\n        /* \"#utility.yul\":10417:10423   */\n      dup3\n        /* \"#utility.yul\":10410:10452   */\n      sstore\n        /* \"#utility.yul\":10491:10492   */\n      0x01\n        /* \"#utility.yul\":10483:10489   */\n      dup3\n        /* \"#utility.yul\":10479:10493   */\n      add\n        /* \"#utility.yul\":10469:10493   */\n      swap2\n      pop\n        /* \"#utility.yul\":10538:10540   */\n      0x20\n        /* \"#utility.yul\":10527:10536   */\n      dup6\n        /* \"#utility.yul\":10523:10541   */\n      add\n        /* \"#utility.yul\":10510:10541   */\n      swap5\n      pop\n        /* \"#utility.yul\":10384:10388   */\n      0x20\n        /* \"#utility.yul\":10381:10382   */\n      dup2\n        /* \"#utility.yul\":10377:10389   */\n      add\n        /* \"#utility.yul\":10372:10389   */\n      swap1\n      pop\n        /* \"#utility.yul\":10347:10555   */\n      jump(tag_204)\n    tag_206:\n        /* \"#utility.yul\":10583:10589   */\n      dup7\n        /* \"#utility.yul\":10574:10581   */\n      dup4\n        /* \"#utility.yul\":10571:10590   */\n      lt\n        /* \"#utility.yul\":10568:10747   */\n      iszero\n      tag_207\n      jumpi\n        /* \"#utility.yul\":10641:10650   */\n      dup5\n        /* \"#utility.yul\":10636:10639   */\n      dup10\n        /* \"#utility.yul\":10632:10651   */\n      add\n        /* \"#utility.yul\":10626:10652   */\n      mload\n        /* \"#utility.yul\":10684:10732   */\n      tag_208\n        /* \"#utility.yul\":10726:10730   */\n      0x1f\n        /* \"#utility.yul\":10718:10724   */\n      dup10\n        /* \"#utility.yul\":10714:10731   */\n      and\n        /* \"#utility.yul\":10703:10712   */\n      dup3\n        /* \"#utility.yul\":10684:10732   */\n      tag_77\n      jump\t// in\n    tag_208:\n        /* \"#utility.yul\":10676:10682   */\n      dup4\n        /* \"#utility.yul\":10669:10733   */\n      sstore\n        /* \"#utility.yul\":10591:10747   */\n      pop\n        /* \"#utility.yul\":10568:10747   */\n    tag_207:\n        /* \"#utility.yul\":10793:10794   */\n      0x01\n        /* \"#utility.yul\":10789:10790   */\n      0x02\n        /* \"#utility.yul\":10781:10787   */\n      dup9\n        /* \"#utility.yul\":10777:10791   */\n      mul\n        /* \"#utility.yul\":10773:10795   */\n      add\n        /* \"#utility.yul\":10767:10771   */\n      dup9\n        /* \"#utility.yul\":10760:10796   */\n      sstore\n        /* \"#utility.yul\":10195:10806   */\n      pop\n      pop\n      pop\n        /* \"#utility.yul\":10158:11045   */\n    tag_199:\n      pop\n        /* \"#utility.yul\":9748:11051   */\n      pop\n      pop\n      pop\n        /* \"#utility.yul\":9656:11051   */\n      pop\n      pop\n      jump\t// out\n\n    auxdata: 0xa2646970667358221220eea5860fda4ffc8233cd64b87223e8c3b501fcde46dbc3c9a4f62dd559e8ae8c64736f6c634300081a0033\n}\n",
				"bytecode": {
					"linkReferences": {},
					"object": "6080604052348015600e575f80fd5b5061085a8061001c5f395ff3fe608060405234801561000f575f80fd5b506004361061004a575f3560e01c8063032ce9aa1461004e5780632e64cec11461006a578063452e7591146100885780636057361d146100ba575b5f80fd5b610068600480360381019061006391906103f1565b6100d6565b005b610072610164565b60405161007f919061046c565b60405180910390f35b6100a2600480360381019061009d9190610485565b61016c565b6040516100b19392919061051f565b60405180910390f35b6100d460048036038101906100cf9190610485565b610233565b005b5f60405180606001604052808481526020018581526020018315158152509050600181908060018154018082558091505060019003905f5260205f2090600302015f909190919091505f820151815f0155602082015181600101908161013c9190610755565b506040820151816002015f6101000a81548160ff021916908315150217905550505050505050565b5f8054905090565b6001818154811061017b575f80fd5b905f5260205f2090600302015f91509050805f0154908060010180546101a090610588565b80601f01602080910402602001604051908101604052809291908181526020018280546101cc90610588565b80156102175780601f106101ee57610100808354040283529160200191610217565b820191905f5260205f20905b8154815290600101906020018083116101fa57829003601f168201915b505050505090806002015f9054906101000a900460ff16905083565b805f8190555050565b5f604051905090565b5f80fd5b5f80fd5b5f80fd5b5f80fd5b5f601f19601f8301169050919050565b7f4e487b71000000000000000000000000000000000000000000000000000000005f52604160045260245ffd5b61029b82610255565b810181811067ffffffffffffffff821117156102ba576102b9610265565b5b80604052505050565b5f6102cc61023c565b90506102d88282610292565b919050565b5f67ffffffffffffffff8211156102f7576102f6610265565b5b61030082610255565b9050602081019050919050565b828183375f83830152505050565b5f61032d610328846102dd565b6102c3565b90508281526020810184848401111561034957610348610251565b5b61035484828561030d565b509392505050565b5f82601f8301126103705761036f61024d565b5b813561038084826020860161031b565b91505092915050565b5f819050919050565b61039b81610389565b81146103a5575f80fd5b50565b5f813590506103b681610392565b92915050565b5f8115159050919050565b6103d0816103bc565b81146103da575f80fd5b50565b5f813590506103eb816103c7565b92915050565b5f805f6060848603121561040857610407610245565b5b5f84013567ffffffffffffffff81111561042557610424610249565b5b6104318682870161035c565b9350506020610442868287016103a8565b9250506040610453868287016103dd565b9150509250925092565b61046681610389565b82525050565b5f60208201905061047f5f83018461045d565b92915050565b5f6020828403121561049a57610499610245565b5b5f6104a7848285016103a8565b91505092915050565b5f81519050919050565b5f82825260208201905092915050565b8281835e5f83830152505050565b5f6104e2826104b0565b6104ec81856104ba565b93506104fc8185602086016104ca565b61050581610255565b840191505092915050565b610519816103bc565b82525050565b5f6060820190506105325f83018661045d565b818103602083015261054481856104d8565b90506105536040830184610510565b949350505050565b7f4e487b71000000000000000000000000000000000000000000000000000000005f52602260045260245ffd5b5f600282049050600182168061059f57607f821691505b6020821081036105b2576105b161055b565b5b50919050565b5f819050815f5260205f209050919050565b5f6020601f8301049050919050565b5f82821b905092915050565b5f600883026106147fffffffffffffffffffffffffffffffffffffffffffffffffffffffffffffffff826105d9565b61061e86836105d9565b95508019841693508086168417925050509392505050565b5f819050919050565b5f61065961065461064f84610389565b610636565b610389565b9050919050565b5f819050919050565b6106728361063f565b61068661067e82610660565b8484546105e5565b825550505050565b5f90565b61069a61068e565b6106a5818484610669565b505050565b5b818110156106c8576106bd5f82610692565b6001810190506106ab565b5050565b601f82111561070d576106de816105b8565b6106e7846105ca565b810160208510156106f6578190505b61070a610702856105ca565b8301826106aa565b50505b505050565b5f82821c905092915050565b5f61072d5f1984600802610712565b1980831691505092915050565b5f610745838361071e565b9150826002028217905092915050565b61075e826104b0565b67ffffffffffffffff81111561077757610776610265565b5b6107818254610588565b61078c8282856106cc565b5f60209050601f8311600181146107bd575f84156107ab578287015190505b6107b5858261073a565b86555061081c565b601f1984166107cb866105b8565b5f5b828110156107f2578489015182556001820191506020850194506020810190506107cd565b8683101561080f578489015161080b601f89168261071e565b8355505b6001600288020188555050505b50505050505056fea2646970667358221220eea5860fda4ffc8233cd64b87223e8c3b501fcde46dbc3c9a4f62dd559e8ae8c64736f6c634300081a0033",
					"opcodes": "PUSH1 0x80 PUSH1 0x40 MSTORE CALLVALUE DUP1 ISZERO PUSH1 0xE JUMPI PUSH0 DUP1 REVERT JUMPDEST POP PUSH2 0x85A DUP1 PUSH2 0x1C PUSH0 CODECOPY PUSH0 RETURN INVALID PUSH1 0x80 PUSH1 0x40 MSTORE CALLVALUE DUP1 ISZERO PUSH2 0xF JUMPI PUSH0 DUP1 REVERT JUMPDEST POP PUSH1 0x4 CALLDATASIZE LT PUSH2 0x4A JUMPI PUSH0 CALLDATALOAD PUSH1 0xE0 SHR DUP1 PUSH4 0x32CE9AA EQ PUSH2 0x4E JUMPI DUP1 PUSH4 0x2E64CEC1 EQ PUSH2 0x6A JUMPI DUP1 PUSH4 0x452E7591 EQ PUSH2 0x88 JUMPI DUP1 PUSH4 0x6057361D EQ PUSH2 0xBA JUMPI JUMPDEST PUSH0 DUP1 REVERT JUMPDEST PUSH2 0x68 PUSH1 0x4 DUP1 CALLDATASIZE SUB DUP2 ADD SWAP1 PUSH2 0x63 SWAP2 SWAP1 PUSH2 0x3F1 JUMP JUMPDEST PUSH2 0xD6 JUMP JUMPDEST STOP JUMPDEST PUSH2 0x72 PUSH2 0x164 JUMP JUMPDEST PUSH1 0x40 MLOAD PUSH2 0x7F SWAP2 SWAP1 PUSH2 0x46C JUMP JUMPDEST PUSH1 0x40 MLOAD DUP1 SWAP2 SUB SWAP1 RETURN JUMPDEST PUSH2 0xA2 PUSH1 0x4 DUP1 CALLDATASIZE SUB DUP2 ADD SWAP1 PUSH2 0x9D SWAP2 SWAP1 PUSH2 0x485 JUMP JUMPDEST PUSH2 0x16C JUMP JUMPDEST PUSH1 0x40 MLOAD PUSH2 0xB1 SWAP4 SWAP3 SWAP2 SWAP1 PUSH2 0x51F JUMP JUMPDEST PUSH1 0x40 MLOAD DUP1 SWAP2 SUB SWAP1 RETURN JUMPDEST PUSH2 0xD4 PUSH1 0x4 DUP1 CALLDATASIZE SUB DUP2 ADD SWAP1 PUSH2 0xCF SWAP2 SWAP1 PUSH2 0x485 JUMP JUMPDEST PUSH2 0x233 JUMP JUMPDEST STOP JUMPDEST PUSH0 PUSH1 0x40 MLOAD DUP1 PUSH1 0x60 ADD PUSH1 0x40 MSTORE DUP1 DUP5 DUP2 MSTORE PUSH1 0x20 ADD DUP6 DUP2 MSTORE PUSH1 0x20 ADD DUP4 ISZERO ISZERO DUP2 MSTORE POP SWAP1 POP PUSH1 0x1 DUP2 SWAP1 DUP1 PUSH1 0x1 DUP2 SLOAD ADD DUP1 DUP3 SSTORE DUP1 SWAP2 POP POP PUSH1 0x1 SWAP1 SUB SWAP1 PUSH0 MSTORE PUSH1 0x20 PUSH0 KECCAK256 SWAP1 PUSH1 0x3 MUL ADD PUSH0 SWAP1 SWAP2 SWAP1 SWAP2 SWAP1 SWAP2 POP PUSH0 DUP3 ADD MLOAD DUP2 PUSH0 ADD SSTORE PUSH1 0x20 DUP3 ADD MLOAD DUP2 PUSH1 0x1 ADD SWAP1 DUP2 PUSH2 0x13C SWAP2 SWAP1 PUSH2 0x755 JUMP JUMPDEST POP PUSH1 0x40 DUP3 ADD MLOAD DUP2 PUSH1 0x2 ADD PUSH0 PUSH2 0x100 EXP DUP2 SLOAD DUP2 PUSH1 0xFF MUL NOT AND SWAP1 DUP4 ISZERO ISZERO MUL OR SWAP1 SSTORE POP POP POP POP POP POP POP JUMP JUMPDEST PUSH0 DUP1 SLOAD SWAP1 POP SWAP1 JUMP JUMPDEST PUSH1 0x1 DUP2 DUP2 SLOAD DUP2 LT PUSH2 0x17B JUMPI PUSH0 DUP1 REVERT JUMPDEST SWAP1 PUSH0 MSTORE PUSH1 0x20 PUSH0 KECCAK256 SWAP1 PUSH1 0x3 MUL ADD PUSH0 SWAP2 POP SWAP1 POP DUP1 PUSH0 ADD SLOAD SWAP1 DUP1 PUSH1 0x1 ADD DUP1 SLOAD PUSH2 0x1A0 SWAP1 PUSH2 0x588 JUMP JUMPDEST DUP1 PUSH1 0x1F ADD PUSH1 0x20 DUP1 SWAP2 DIV MUL PUSH1 0x20 ADD PUSH1 0x40 MLOAD SWAP1 DUP2 ADD PUSH1 0x40 MSTORE DUP1 SWAP3 SWAP2 SWAP1 DUP2 DUP2 MSTORE PUSH1 0x20 ADD DUP3 DUP1 SLOAD PUSH2 0x1CC SWAP1 PUSH2 0x588 JUMP JUMPDEST DUP1 ISZERO PUSH2 0x217 JUMPI DUP1 PUSH1 0x1F LT PUSH2 0x1EE JUMPI PUSH2 0x100 DUP1 DUP4 SLOAD DIV MUL DUP4 MSTORE SWAP2 PUSH1 0x20 ADD SWAP2 PUSH2 0x217 JUMP JUMPDEST DUP3 ADD SWAP2 SWAP1 PUSH0 MSTORE PUSH1 0x20 PUSH0 KECCAK256 SWAP1 JUMPDEST DUP2 SLOAD DUP2 MSTORE SWAP1 PUSH1 0x1 ADD SWAP1 PUSH1 0x20 ADD DUP1 DUP4 GT PUSH2 0x1FA JUMPI DUP3 SWAP1 SUB PUSH1 0x1F AND DUP3 ADD SWAP2 JUMPDEST POP POP POP POP POP SWAP1 DUP1 PUSH1 0x2 ADD PUSH0 SWAP1 SLOAD SWAP1 PUSH2 0x100 EXP SWAP1 DIV PUSH1 0xFF AND SWAP1 POP DUP4 JUMP JUMPDEST DUP1 PUSH0 DUP2 SWAP1 SSTORE POP POP JUMP JUMPDEST PUSH0 PUSH1 0x40 MLOAD SWAP1 POP SWAP1 JUMP JUMPDEST PUSH0 DUP1 REVERT JUMPDEST PUSH0 DUP1 REVERT JUMPDEST PUSH0 DUP1 REVERT JUMPDEST PUSH0 DUP1 REVERT JUMPDEST PUSH0 PUSH1 0x1F NOT PUSH1 0x1F DUP4 ADD AND SWAP1 POP SWAP2 SWAP1 POP JUMP JUMPDEST PUSH32 0x4E487B7100000000000000000000000000000000000000000000000000000000 PUSH0 MSTORE PUSH1 0x41 PUSH1 0x4 MSTORE PUSH1 0x24 PUSH0 REVERT JUMPDEST PUSH2 0x29B DUP3 PUSH2 0x255 JUMP JUMPDEST DUP2 ADD DUP2 DUP2 LT PUSH8 0xFFFFFFFFFFFFFFFF DUP3 GT OR ISZERO PUSH2 0x2BA JUMPI PUSH2 0x2B9 PUSH2 0x265 JUMP JUMPDEST JUMPDEST DUP1 PUSH1 0x40 MSTORE POP POP POP JUMP JUMPDEST PUSH0 PUSH2 0x2CC PUSH2 0x23C JUMP JUMPDEST SWAP1 POP PUSH2 0x2D8 DUP3 DUP3 PUSH2 0x292 JUMP JUMPDEST SWAP2 SWAP1 POP JUMP JUMPDEST PUSH0 PUSH8 0xFFFFFFFFFFFFFFFF DUP3 GT ISZERO PUSH2 0x2F7 JUMPI PUSH2 0x2F6 PUSH2 0x265 JUMP JUMPDEST JUMPDEST PUSH2 0x300 DUP3 PUSH2 0x255 JUMP JUMPDEST SWAP1 POP PUSH1 0x20 DUP2 ADD SWAP1 POP SWAP2 SWAP1 POP JUMP JUMPDEST DUP3 DUP2 DUP4 CALLDATACOPY PUSH0 DUP4 DUP4 ADD MSTORE POP POP POP JUMP JUMPDEST PUSH0 PUSH2 0x32D PUSH2 0x328 DUP5 PUSH2 0x2DD JUMP JUMPDEST PUSH2 0x2C3 JUMP JUMPDEST SWAP1 POP DUP3 DUP2 MSTORE PUSH1 0x20 DUP2 ADD DUP5 DUP5 DUP5 ADD GT ISZERO PUSH2 0x349 JUMPI PUSH2 0x348 PUSH2 0x251 JUMP JUMPDEST JUMPDEST PUSH2 0x354 DUP5 DUP3 DUP6 PUSH2 0x30D JUMP JUMPDEST POP SWAP4 SWAP3 POP POP POP JUMP JUMPDEST PUSH0 DUP3 PUSH1 0x1F DUP4 ADD SLT PUSH2 0x370 JUMPI PUSH2 0x36F PUSH2 0x24D JUMP JUMPDEST JUMPDEST DUP2 CALLDATALOAD PUSH2 0x380 DUP5 DUP3 PUSH1 0x20 DUP7 ADD PUSH2 0x31B JUMP JUMPDEST SWAP2 POP POP SWAP3 SWAP2 POP POP JUMP JUMPDEST PUSH0 DUP2 SWAP1 POP SWAP2 SWAP1 POP JUMP JUMPDEST PUSH2 0x39B DUP2 PUSH2 0x389 JUMP JUMPDEST DUP2 EQ PUSH2 0x3A5 JUMPI PUSH0 DUP1 REVERT JUMPDEST POP JUMP JUMPDEST PUSH0 DUP2 CALLDATALOAD SWAP1 POP PUSH2 0x3B6 DUP2 PUSH2 0x392 JUMP JUMPDEST SWAP3 SWAP2 POP POP JUMP JUMPDEST PUSH0 DUP2 ISZERO ISZERO SWAP1 POP SWAP2 SWAP1 POP JUMP JUMPDEST PUSH2 0x3D0 DUP2 PUSH2 0x3BC JUMP JUMPDEST DUP2 EQ PUSH2 0x3DA JUMPI PUSH0 DUP1 REVERT JUMPDEST POP JUMP JUMPDEST PUSH0 DUP2 CALLDATALOAD SWAP1 POP PUSH2 0x3EB DUP2 PUSH2 0x3C7 JUMP JUMPDEST SWAP3 SWAP2 POP POP JUMP JUMPDEST PUSH0 DUP1 PUSH0 PUSH1 0x60 DUP5 DUP7 SUB SLT ISZERO PUSH2 0x408 JUMPI PUSH2 0x407 PUSH2 0x245 JUMP JUMPDEST JUMPDEST PUSH0 DUP5 ADD CALLDATALOAD PUSH8 0xFFFFFFFFFFFFFFFF DUP2 GT ISZERO PUSH2 0x425 JUMPI PUSH2 0x424 PUSH2 0x249 JUMP JUMPDEST JUMPDEST PUSH2 0x431 DUP7 DUP3 DUP8 ADD PUSH2 0x35C JUMP JUMPDEST SWAP4 POP POP PUSH1 0x20 PUSH2 0x442 DUP7 DUP3 DUP8 ADD PUSH2 0x3A8 JUMP JUMPDEST SWAP3 POP POP PUSH1 0x40 PUSH2 0x453 DUP7 DUP3 DUP8 ADD PUSH2 0x3DD JUMP JUMPDEST SWAP2 POP POP SWAP3 POP SWAP3 POP SWAP3 JUMP JUMPDEST PUSH2 0x466 DUP2 PUSH2 0x389 JUMP JUMPDEST DUP3 MSTORE POP POP JUMP JUMPDEST PUSH0 PUSH1 0x20 DUP3 ADD SWAP1 POP PUSH2 0x47F PUSH0 DUP4 ADD DUP5 PUSH2 0x45D JUMP JUMPDEST SWAP3 SWAP2 POP POP JUMP JUMPDEST PUSH0 PUSH1 0x20 DUP3 DUP5 SUB SLT ISZERO PUSH2 0x49A JUMPI PUSH2 0x499 PUSH2 0x245 JUMP JUMPDEST JUMPDEST PUSH0 PUSH2 0x4A7 DUP5 DUP3 DUP6 ADD PUSH2 0x3A8 JUMP JUMPDEST SWAP2 POP POP SWAP3 SWAP2 POP POP JUMP JUMPDEST PUSH0 DUP2 MLOAD SWAP1 POP SWAP2 SWAP1 POP JUMP JUMPDEST PUSH0 DUP3 DUP3 MSTORE PUSH1 0x20 DUP3 ADD SWAP1 POP SWAP3 SWAP2 POP POP JUMP JUMPDEST DUP3 DUP2 DUP4 MCOPY PUSH0 DUP4 DUP4 ADD MSTORE POP POP POP JUMP JUMPDEST PUSH0 PUSH2 0x4E2 DUP3 PUSH2 0x4B0 JUMP JUMPDEST PUSH2 0x4EC DUP2 DUP6 PUSH2 0x4BA JUMP JUMPDEST SWAP4 POP PUSH2 0x4FC DUP2 DUP6 PUSH1 0x20 DUP7 ADD PUSH2 0x4CA JUMP JUMPDEST PUSH2 0x505 DUP2 PUSH2 0x255 JUMP JUMPDEST DUP5 ADD SWAP2 POP POP SWAP3 SWAP2 POP POP JUMP JUMPDEST PUSH2 0x519 DUP2 PUSH2 0x3BC JUMP JUMPDEST DUP3 MSTORE POP POP JUMP JUMPDEST PUSH0 PUSH1 0x60 DUP3 ADD SWAP1 POP PUSH2 0x532 PUSH0 DUP4 ADD DUP7 PUSH2 0x45D JUMP JUMPDEST DUP2 DUP2 SUB PUSH1 0x20 DUP4 ADD MSTORE PUSH2 0x544 DUP2 DUP6 PUSH2 0x4D8 JUMP JUMPDEST SWAP1 POP PUSH2 0x553 PUSH1 0x40 DUP4 ADD DUP5 PUSH2 0x510 JUMP JUMPDEST SWAP5 SWAP4 POP POP POP POP JUMP JUMPDEST PUSH32 0x4E487B7100000000000000000000000000000000000000000000000000000000 PUSH0 MSTORE PUSH1 0x22 PUSH1 0x4 MSTORE PUSH1 0x24 PUSH0 REVERT JUMPDEST PUSH0 PUSH1 0x2 DUP3 DIV SWAP1 POP PUSH1 0x1 DUP3 AND DUP1 PUSH2 0x59F JUMPI PUSH1 0x7F DUP3 AND SWAP2 POP JUMPDEST PUSH1 0x20 DUP3 LT DUP2 SUB PUSH2 0x5B2 JUMPI PUSH2 0x5B1 PUSH2 0x55B JUMP JUMPDEST JUMPDEST POP SWAP2 SWAP1 POP JUMP JUMPDEST PUSH0 DUP2 SWAP1 POP DUP2 PUSH0 MSTORE PUSH1 0x20 PUSH0 KECCAK256 SWAP1 POP SWAP2 SWAP1 POP JUMP JUMPDEST PUSH0 PUSH1 0x20 PUSH1 0x1F DUP4 ADD DIV SWAP1 POP SWAP2 SWAP1 POP JUMP JUMPDEST PUSH0 DUP3 DUP3 SHL SWAP1 POP SWAP3 SWAP2 POP POP JUMP JUMPDEST PUSH0 PUSH1 0x8 DUP4 MUL PUSH2 0x614 PUSH32 0xFFFFFFFFFFFFFFFFFFFFFFFFFFFFFFFFFFFFFFFFFFFFFFFFFFFFFFFFFFFFFFFF DUP3 PUSH2 0x5D9 JUMP JUMPDEST PUSH2 0x61E DUP7 DUP4 PUSH2 0x5D9 JUMP JUMPDEST SWAP6 POP DUP1 NOT DUP5 AND SWAP4 POP DUP1 DUP7 AND DUP5 OR SWAP3 POP POP POP SWAP4 SWAP3 POP POP POP JUMP JUMPDEST PUSH0 DUP2 SWAP1 POP SWAP2 SWAP1 POP JUMP JUMPDEST PUSH0 PUSH2 0x659 PUSH2 0x654 PUSH2 0x64F DUP5 PUSH2 0x389 JUMP JUMPDEST PUSH2 0x636 JUMP JUMPDEST PUSH2 0x389 JUMP JUMPDEST SWAP1 POP SWAP2 SWAP1 POP JUMP JUMPDEST PUSH0 DUP2 SWAP1 POP SWAP2 SWAP1 POP JUMP JUMPDEST PUSH2 0x672 DUP4 PUSH2 0x63F JUMP JUMPDEST PUSH2 0x686 PUSH2 0x67E DUP3 PUSH2 0x660 JUMP JUMPDEST DUP5 DUP5 SLOAD PUSH2 0x5E5 JUMP JUMPDEST DUP3 SSTORE POP POP POP POP JUMP JUMPDEST PUSH0 SWAP1 JUMP JUMPDEST PUSH2 0x69A PUSH2 0x68E JUMP JUMPDEST PUSH2 0x6A5 DUP2 DUP5 DUP5 PUSH2 0x669 JUMP JUMPDEST POP POP POP JUMP JUMPDEST JUMPDEST DUP2 DUP2 LT ISZERO PUSH2 0x6C8 JUMPI PUSH2 0x6BD PUSH0 DUP3 PUSH2 0x692 JUMP JUMPDEST PUSH1 0x1 DUP2 ADD SWAP1 POP PUSH2 0x6AB JUMP JUMPDEST POP POP JUMP JUMPDEST PUSH1 0x1F DUP3 GT ISZERO PUSH2 0x70D JUMPI PUSH2 0x6DE DUP2 PUSH2 0x5B8 JUMP JUMPDEST PUSH2 0x6E7 DUP5 PUSH2 0x5CA JUMP JUMPDEST DUP2 ADD PUSH1 0x20 DUP6 LT ISZERO PUSH2 0x6F6 JUMPI DUP2 SWAP1 POP JUMPDEST PUSH2 0x70A PUSH2 0x702 DUP6 PUSH2 0x5CA JUMP JUMPDEST DUP4 ADD DUP3 PUSH2 0x6AA JUMP JUMPDEST POP POP JUMPDEST POP POP POP JUMP JUMPDEST PUSH0 DUP3 DUP3 SHR SWAP1 POP SWAP3 SWAP2 POP POP JUMP JUMPDEST PUSH0 PUSH2 0x72D PUSH0 NOT DUP5 PUSH1 0x8 MUL PUSH2 0x712 JUMP JUMPDEST NOT DUP1 DUP4 AND SWAP2 POP POP SWAP3 SWAP2 POP POP JUMP JUMPDEST PUSH0 PUSH2 0x745 DUP4 DUP4 PUSH2 0x71E JUMP JUMPDEST SWAP2 POP DUP3 PUSH1 0x2 MUL DUP3 OR SWAP1 POP SWAP3 SWAP2 POP POP JUMP JUMPDEST PUSH2 0x75E DUP3 PUSH2 0x4B0 JUMP JUMPDEST PUSH8 0xFFFFFFFFFFFFFFFF DUP2 GT ISZERO PUSH2 0x777 JUMPI PUSH2 0x776 PUSH2 0x265 JUMP JUMPDEST JUMPDEST PUSH2 0x781 DUP3 SLOAD PUSH2 0x588 JUMP JUMPDEST PUSH2 0x78C DUP3 DUP3 DUP6 PUSH2 0x6CC JUMP JUMPDEST PUSH0 PUSH1 0x20 SWAP1 POP PUSH1 0x1F DUP4 GT PUSH1 0x1 DUP2 EQ PUSH2 0x7BD JUMPI PUSH0 DUP5 ISZERO PUSH2 0x7AB JUMPI DUP3 DUP8 ADD MLOAD SWAP1 POP JUMPDEST PUSH2 0x7B5 DUP6 DUP3 PUSH2 0x73A JUMP JUMPDEST DUP7 SSTORE POP PUSH2 0x81C JUMP JUMPDEST PUSH1 0x1F NOT DUP5 AND PUSH2 0x7CB DUP7 PUSH2 0x5B8 JUMP JUMPDEST PUSH0 JUMPDEST DUP3 DUP2 LT ISZERO PUSH2 0x7F2 JUMPI DUP5 DUP10 ADD MLOAD DUP3 SSTORE PUSH1 0x1 DUP3 ADD SWAP2 POP PUSH1 0x20 DUP6 ADD SWAP5 POP PUSH1 0x20 DUP2 ADD SWAP1 POP PUSH2 0x7CD JUMP JUMPDEST DUP7 DUP4 LT ISZERO PUSH2 0x80F JUMPI DUP5 DUP10 ADD MLOAD PUSH2 0x80B PUSH1 0x1F DUP10 AND DUP3 PUSH2 0x71E JUMP JUMPDEST DUP4 SSTORE POP JUMPDEST PUSH1 0x1 PUSH1 0x2 DUP9 MUL ADD DUP9 SSTORE POP POP POP JUMPDEST POP POP POP POP POP POP JUMP INVALID LOG2 PUSH5 0x6970667358 0x22 SLT KECCAK256 0xEE 0xA5 DUP7 0xF 0xDA 0x4F 0xFC DUP3 CALLER 0xCD PUSH5 0xB87223E8C3 0xB5 ADD 0xFC 0xDE CHAINID 0xDB 0xC3 0xC9 LOG4 0xF6 0x2D 0xD5 MSIZE 0xE8 0xAE DUP13 PUSH5 0x736F6C6343 STOP ADDMOD BYTE STOP CALLER "
				},
				"gasEstimates": {
					"creation": {
						"codeDepositCost": "427600",
						"executionCost": "459",
						"totalCost": "428059"
					},
					"external": {
						"addPerson(string,uint256,bool)": "infinite",
						"listPeople(uint256)": "infinite",
						"retrieve()": "2432",
						"store(uint256)": "22558"
					}
				},
				"methodIdentifiers": {
					"addPerson(string,uint256,bool)": "032ce9aa",
					"listPeople(uint256)": "452e7591",
					"retrieve()": "2e64cec1",
					"store(uint256)": "6057361d"
				}
			},
			"storageLayout": {
				"storage": [
					{
						"astId": 3,
						"contract": "simpleStorage.sol:SimpleStorage",
						"label": "myFavoriteNumber",
						"offset": 0,
						"slot": "0",
						"type": "t_uint256"
					},
					{
						"astId": 14,
						"contract": "simpleStorage.sol:SimpleStorage",
						"label": "listPeople",
						"offset": 0,
						"slot": "1",
						"type": "t_array(t_struct(Person)10_storage)dyn_storage"
					}
				],
				"types": {
					"t_array(t_struct(Person)10_storage)dyn_storage": {
						"base": "t_struct(Person)10_storage",
						"encoding": "dynamic_array",
						"label": "struct SimpleStorage.Person[]",
						"numberOfBytes": "32"
					},
					"t_bool": {
						"encoding": "inplace",
						"label": "bool",
						"numberOfBytes": "1"
					},
					"t_string_storage": {
						"encoding": "bytes",
						"label": "string",
						"numberOfBytes": "32"
					},
					"t_struct(Person)10_storage": {
						"encoding": "inplace",
						"label": "struct SimpleStorage.Person",
						"members": [
							{
								"astId": 5,
								"contract": "simpleStorage.sol:SimpleStorage",
								"label": "favoriteNumber",
								"offset": 0,
								"slot": "0",
								"type": "t_uint256"
							},
							{
								"astId": 7,
								"contract": "simpleStorage.sol:SimpleStorage",
								"label": "name",
								"offset": 0,
								"slot": "1",
								"type": "t_string_storage"
							},
							{
								"astId": 9,
								"contract": "simpleStorage.sol:SimpleStorage",
								"label": "isCool",
								"offset": 0,
								"slot": "2",
								"type": "t_bool"
							}
						],
						"numberOfBytes": "96"
					},
					"t_uint256": {
						"encoding": "inplace",
						"label": "uint256",
						"numberOfBytes": "32"
					}
				}
			},
			"userdoc": {
				"kind": "user",
				"methods": {},
				"version": 1
			}
		}
	}
}