{
	"data": {
		"bytecode": {
			"linkReferences": {},
			"object": "6080604052348015600e575f80fd5b50610c388061001c5f395ff3fe608060405234801561000f575f80fd5b5060043610610034575f3560e01c80631dda6541146100385780636be0d6bf14610042575b5f80fd5b610040610060565b005b61004a6100c6565b6040516100579190610170565b60405180910390f35b60405161006c906100e9565b604051809103905ff080158015610085573d5f803e3d5ffd5b505f806101000a81548173ffffffffffffffffffffffffffffffffffffffff021916908373ffffffffffffffffffffffffffffffffffffffff160217905550565b5f8054906101000a900473ffffffffffffffffffffffffffffffffffffffff1681565b610a798061018a83390190565b5f73ffffffffffffffffffffffffffffffffffffffff82169050919050565b5f819050919050565b5f61013861013361012e846100f6565b610115565b6100f6565b9050919050565b5f6101498261011e565b9050919050565b5f61015a8261013f565b9050919050565b61016a81610150565b82525050565b5f6020820190506101835f830184610161565b9291505056fe6080604052348015600e575f80fd5b50610a5d8061001c5f395ff3fe608060405234801561000f575f80fd5b5060043610610055575f3560e01c8063032ce9aa146100595780632e64cec114610075578063452e7591146100935780636057361d146100c55780638bab8dd5146100e1575b5f80fd5b610073600480360381019061006e919061055d565b610113565b005b61007d610200565b60405161008a91906105d8565b60405180910390f35b6100ad60048036038101906100a891906105f1565b610208565b6040516100bc9392919061068b565b60405180910390f35b6100df60048036038101906100da91906105f1565b6102cf565b005b6100fb60048036038101906100f691906106c7565b6102d8565b60405161010a9392919061068b565b60405180910390f35b5f60405180606001604052808481526020018581526020018315158152509050600181908060018154018082558091505060019003905f5260205f2090600302015f909190919091505f820151815f015560208201518160010190816101799190610908565b506040820151816002015f6101000a81548160ff0219169083151502179055505050806002856040516101ac9190610a11565b90815260200160405180910390205f820151815f015560208201518160010190816101d79190610908565b506040820151816002015f6101000a81548160ff02191690831515021790555090505050505050565b5f8054905090565b60018181548110610217575f80fd5b905f5260205f2090600302015f91509050805f01549080600101805461023c9061073b565b80601f01602080910402602001604051908101604052809291908181526020018280546102689061073b565b80156102b35780601f1061028a576101008083540402835291602001916102b3565b820191905f5260205f20905b81548152906001019060200180831161029657829003601f168201915b505050505090806002015f9054906101000a900460ff16905083565b805f8190555050565b6002818051602081018201805184825260208301602085012081835280955050505050505f91509050805f0154908060010180546103159061073b565b80601f01602080910402602001604051908101604052809291908181526020018280546103419061073b565b801561038c5780601f106103635761010080835404028352916020019161038c565b820191905f5260205f20905b81548152906001019060200180831161036f57829003601f168201915b505050505090806002015f9054906101000a900460ff16905083565b5f604051905090565b5f80fd5b5f80fd5b5f80fd5b5f80fd5b5f601f19601f8301169050919050565b7f4e487b71000000000000000000000000000000000000000000000000000000005f52604160045260245ffd5b610407826103c1565b810181811067ffffffffffffffff82111715610426576104256103d1565b5b80604052505050565b5f6104386103a8565b905061044482826103fe565b919050565b5f67ffffffffffffffff821115610463576104626103d1565b5b61046c826103c1565b9050602081019050919050565b828183375f83830152505050565b5f61049961049484610449565b61042f565b9050828152602081018484840111156104b5576104b46103bd565b5b6104c0848285610479565b509392505050565b5f82601f8301126104dc576104db6103b9565b5b81356104ec848260208601610487565b91505092915050565b5f819050919050565b610507816104f5565b8114610511575f80fd5b50565b5f81359050610522816104fe565b92915050565b5f8115159050919050565b61053c81610528565b8114610546575f80fd5b50565b5f8135905061055781610533565b92915050565b5f805f60608486031215610574576105736103b1565b5b5f84013567ffffffffffffffff811115610591576105906103b5565b5b61059d868287016104c8565b93505060206105ae86828701610514565b92505060406105bf86828701610549565b9150509250925092565b6105d2816104f5565b82525050565b5f6020820190506105eb5f8301846105c9565b92915050565b5f60208284031215610606576106056103b1565b5b5f61061384828501610514565b91505092915050565b5f81519050919050565b5f82825260208201905092915050565b8281835e5f83830152505050565b5f61064e8261061c565b6106588185610626565b9350610668818560208601610636565b610671816103c1565b840191505092915050565b61068581610528565b82525050565b5f60608201905061069e5f8301866105c9565b81810360208301526106b08185610644565b90506106bf604083018461067c565b949350505050565b5f602082840312156106dc576106db6103b1565b5b5f82013567ffffffffffffffff8111156106f9576106f86103b5565b5b610705848285016104c8565b91505092915050565b7f4e487b71000000000000000000000000000000000000000000000000000000005f52602260045260245ffd5b5f600282049050600182168061075257607f821691505b6020821081036107655761076461070e565b5b50919050565b5f819050815f5260205f209050919050565b5f6020601f8301049050919050565b5f82821b905092915050565b5f600883026107c77fffffffffffffffffffffffffffffffffffffffffffffffffffffffffffffffff8261078c565b6107d1868361078c565b95508019841693508086168417925050509392505050565b5f819050919050565b5f61080c610807610802846104f5565b6107e9565b6104f5565b9050919050565b5f819050919050565b610825836107f2565b61083961083182610813565b848454610798565b825550505050565b5f90565b61084d610841565b61085881848461081c565b505050565b5b8181101561087b576108705f82610845565b60018101905061085e565b5050565b601f8211156108c0576108918161076b565b61089a8461077d565b810160208510156108a9578190505b6108bd6108b58561077d565b83018261085d565b50505b505050565b5f82821c905092915050565b5f6108e05f19846008026108c5565b1980831691505092915050565b5f6108f883836108d1565b9150826002028217905092915050565b6109118261061c565b67ffffffffffffffff81111561092a576109296103d1565b5b610934825461073b565b61093f82828561087f565b5f60209050601f831160018114610970575f841561095e578287015190505b61096885826108ed565b8655506109cf565b601f19841661097e8661076b565b5f5b828110156109a557848901518255600182019150602085019450602081019050610980565b868310156109c257848901516109be601f8916826108d1565b8355505b6001600288020188555050505b505050505050565b5f81905092915050565b5f6109eb8261061c565b6109f581856109d7565b9350610a05818560208601610636565b80840191505092915050565b5f610a1c82846109e1565b91508190509291505056fea26469706673582212208c19362d457026c518571d4e8700c576b5597235b21311a490aea986871d00fb64736f6c634300081a0033a2646970667358221220c5e830cebee5126fe428977e22555b7e157aed9138749be0c1c6f4873eb6fa6b64736f6c634300081a0033",
			"opcodes": "PUSH1 0x80 PUSH1 0x40 MSTORE CALLVALUE DUP1 ISZERO PUSH1 0xE JUMPI PUSH0 DUP1 REVERT JUMPDEST POP PUSH2 0xC38 DUP1 PUSH2 0x1C PUSH0 CODECOPY PUSH0 RETURN INVALID PUSH1 0x80 PUSH1 0x40 MSTORE CALLVALUE DUP1 ISZERO PUSH2 0xF JUMPI PUSH0 DUP1 REVERT JUMPDEST POP PUSH1 0x4 CALLDATASIZE LT PUSH2 0x34 JUMPI PUSH0 CALLDATALOAD PUSH1 0xE0 SHR DUP1 PUSH4 0x1DDA6541 EQ PUSH2 0x38 JUMPI DUP1 PUSH4 0x6BE0D6BF EQ PUSH2 0x42 JUMPI JUMPDEST PUSH0 DUP1 REVERT JUMPDEST PUSH2 0x40 PUSH2 0x60 JUMP JUMPDEST STOP JUMPDEST PUSH2 0x4A PUSH2 0xC6 JUMP JUMPDEST PUSH1 0x40 MLOAD PUSH2 0x57 SWAP2 SWAP1 PUSH2 0x170 JUMP JUMPDEST PUSH1 0x40 MLOAD DUP1 SWAP2 SUB SWAP1 RETURN JUMPDEST PUSH1 0x40 MLOAD PUSH2 0x6C SWAP1 PUSH2 0xE9 JUMP JUMPDEST PUSH1 0x40 MLOAD DUP1 SWAP2 SUB SWAP1 PUSH0 CREATE DUP1 ISZERO DUP1 ISZERO PUSH2 0x85 JUMPI RETURNDATASIZE PUSH0 DUP1 RETURNDATACOPY RETURNDATASIZE PUSH0 REVERT JUMPDEST POP PUSH0 DUP1 PUSH2 0x100 EXP DUP2 SLOAD DUP2 PUSH20 0xFFFFFFFFFFFFFFFFFFFFFFFFFFFFFFFFFFFFFFFF MUL NOT AND SWAP1 DUP4 PUSH20 0xFFFFFFFFFFFFFFFFFFFFFFFFFFFFFFFFFFFFFFFF AND MUL OR SWAP1 SSTORE POP JUMP JUMPDEST PUSH0 DUP1 SLOAD SWAP1 PUSH2 0x100 EXP SWAP1 DIV PUSH20 0xFFFFFFFFFFFFFFFFFFFFFFFFFFFFFFFFFFFFFFFF AND DUP2 JUMP JUMPDEST PUSH2 0xA79 DUP1 PUSH2 0x18A DUP4 CODECOPY ADD SWAP1 JUMP JUMPDEST PUSH0 PUSH20 0xFFFFFFFFFFFFFFFFFFFFFFFFFFFFFFFFFFFFFFFF DUP3 AND SWAP1 POP SWAP2 SWAP1 POP JUMP JUMPDEST PUSH0 DUP2 SWAP1 POP SWAP2 SWAP1 POP JUMP JUMPDEST PUSH0 PUSH2 0x138 PUSH2 0x133 PUSH2 0x12E DUP5 PUSH2 0xF6 JUMP JUMPDEST PUSH2 0x115 JUMP JUMPDEST PUSH2 0xF6 JUMP JUMPDEST SWAP1 POP SWAP2 SWAP1 POP JUMP JUMPDEST PUSH0 PUSH2 0x149 DUP3 PUSH2 0x11E JUMP JUMPDEST SWAP1 POP SWAP2 SWAP1 POP JUMP JUMPDEST PUSH0 PUSH2 0x15A DUP3 PUSH2 0x13F JUMP JUMPDEST SWAP1 POP SWAP2 SWAP1 POP JUMP JUMPDEST PUSH2 0x16A DUP2 PUSH2 0x150 JUMP JUMPDEST DUP3 MSTORE POP POP JUMP JUMPDEST PUSH0 PUSH1 0x20 DUP3 ADD SWAP1 POP PUSH2 0x183 PUSH0 DUP4 ADD DUP5 PUSH2 0x161 JUMP JUMPDEST SWAP3 SWAP2 POP POP JUMP INVALID PUSH1 0x80 PUSH1 0x40 MSTORE CALLVALUE DUP1 ISZERO PUSH1 0xE JUMPI PUSH0 DUP1 REVERT JUMPDEST POP PUSH2 0xA5D DUP1 PUSH2 0x1C PUSH0 CODECOPY PUSH0 RETURN INVALID PUSH1 0x80 PUSH1 0x40 MSTORE CALLVALUE DUP1 ISZERO PUSH2 0xF JUMPI PUSH0 DUP1 REVERT JUMPDEST POP PUSH1 0x4 CALLDATASIZE LT PUSH2 0x55 JUMPI PUSH0 CALLDATALOAD PUSH1 0xE0 SHR DUP1 PUSH4 0x32CE9AA EQ PUSH2 0x59 JUMPI DUP1 PUSH4 0x2E64CEC1 EQ PUSH2 0x75 JUMPI DUP1 PUSH4 0x452E7591 EQ PUSH2 0x93 JUMPI DUP1 PUSH4 0x6057361D EQ PUSH2 0xC5 JUMPI DUP1 PUSH4 0x8BAB8DD5 EQ PUSH2 0xE1 JUMPI JUMPDEST PUSH0 DUP1 REVERT JUMPDEST PUSH2 0x73 PUSH1 0x4 DUP1 CALLDATASIZE SUB DUP2 ADD SWAP1 PUSH2 0x6E SWAP2 SWAP1 PUSH2 0x55D JUMP JUMPDEST PUSH2 0x113 JUMP JUMPDEST STOP JUMPDEST PUSH2 0x7D PUSH2 0x200 JUMP JUMPDEST PUSH1 0x40 MLOAD PUSH2 0x8A SWAP2 SWAP1 PUSH2 0x5D8 JUMP JUMPDEST PUSH1 0x40 MLOAD DUP1 SWAP2 SUB SWAP1 RETURN JUMPDEST PUSH2 0xAD PUSH1 0x4 DUP1 CALLDATASIZE SUB DUP2 ADD SWAP1 PUSH2 0xA8 SWAP2 SWAP1 PUSH2 0x5F1 JUMP JUMPDEST PUSH2 0x208 JUMP JUMPDEST PUSH1 0x40 MLOAD PUSH2 0xBC SWAP4 SWAP3 SWAP2 SWAP1 PUSH2 0x68B JUMP JUMPDEST PUSH1 0x40 MLOAD DUP1 SWAP2 SUB SWAP1 RETURN JUMPDEST PUSH2 0xDF PUSH1 0x4 DUP1 CALLDATASIZE SUB DUP2 ADD SWAP1 PUSH2 0xDA SWAP2 SWAP1 PUSH2 0x5F1 JUMP JUMPDEST PUSH2 0x2CF JUMP JUMPDEST STOP JUMPDEST PUSH2 0xFB PUSH1 0x4 DUP1 CALLDATASIZE SUB DUP2 ADD SWAP1 PUSH2 0xF6 SWAP2 SWAP1 PUSH2 0x6C7 JUMP JUMPDEST PUSH2 0x2D8 JUMP JUMPDEST PUSH1 0x40 MLOAD PUSH2 0x10A SWAP4 SWAP3 SWAP2 SWAP1 PUSH2 0x68B JUMP JUMPDEST PUSH1 0x40 MLOAD DUP1 SWAP2 SUB SWAP1 RETURN JUMPDEST PUSH0 PUSH1 0x40 MLOAD DUP1 PUSH1 0x60 ADD PUSH1 0x40 MSTORE DUP1 DUP5 DUP2 MSTORE PUSH1 0x20 ADD DUP6 DUP2 MSTORE PUSH1 0x20 ADD DUP4 ISZERO ISZERO DUP2 MSTORE POP SWAP1 POP PUSH1 0x1 DUP2 SWAP1 DUP1 PUSH1 0x1 DUP2 SLOAD ADD DUP1 DUP3 SSTORE DUP1 SWAP2 POP POP PUSH1 0x1 SWAP1 SUB SWAP1 PUSH0 MSTORE PUSH1 0x20 PUSH0 KECCAK256 SWAP1 PUSH1 0x3 MUL ADD PUSH0 SWAP1 SWAP2 SWAP1 SWAP2 SWAP1 SWAP2 POP PUSH0 DUP3 ADD MLOAD DUP2 PUSH0 ADD SSTORE PUSH1 0x20 DUP3 ADD MLOAD DUP2 PUSH1 0x1 ADD SWAP1 DUP2 PUSH2 0x179 SWAP2 SWAP1 PUSH2 0x908 JUMP JUMPDEST POP PUSH1 0x40 DUP3 ADD MLOAD DUP2 PUSH1 0x2 ADD PUSH0 PUSH2 0x100 EXP DUP2 SLOAD DUP2 PUSH1 0xFF MUL NOT AND SWAP1 DUP4 ISZERO ISZERO MUL OR SWAP1 SSTORE POP POP POP DUP1 PUSH1 0x2 DUP6 PUSH1 0x40 MLOAD PUSH2 0x1AC SWAP2 SWAP1 PUSH2 0xA11 JUMP JUMPDEST SWAP1 DUP2 MSTORE PUSH1 0x20 ADD PUSH1 0x40 MLOAD DUP1 SWAP2 SUB SWAP1 KECCAK256 PUSH0 DUP3 ADD MLOAD DUP2 PUSH0 ADD SSTORE PUSH1 0x20 DUP3 ADD MLOAD DUP2 PUSH1 0x1 ADD SWAP1 DUP2 PUSH2 0x1D7 SWAP2 SWAP1 PUSH2 0x908 JUMP JUMPDEST POP PUSH1 0x40 DUP3 ADD MLOAD DUP2 PUSH1 0x2 ADD PUSH0 PUSH2 0x100 EXP DUP2 SLOAD DUP2 PUSH1 0xFF MUL NOT AND SWAP1 DUP4 ISZERO ISZERO MUL OR SWAP1 SSTORE POP SWAP1 POP POP POP POP POP POP JUMP JUMPDEST PUSH0 DUP1 SLOAD SWAP1 POP SWAP1 JUMP JUMPDEST PUSH1 0x1 DUP2 DUP2 SLOAD DUP2 LT PUSH2 0x217 JUMPI PUSH0 DUP1 REVERT JUMPDEST SWAP1 PUSH0 MSTORE PUSH1 0x20 PUSH0 KECCAK256 SWAP1 PUSH1 0x3 MUL ADD PUSH0 SWAP2 POP SWAP1 POP DUP1 PUSH0 ADD SLOAD SWAP1 DUP1 PUSH1 0x1 ADD DUP1 SLOAD PUSH2 0x23C SWAP1 PUSH2 0x73B JUMP JUMPDEST DUP1 PUSH1 0x1F ADD PUSH1 0x20 DUP1 SWAP2 DIV MUL PUSH1 0x20 ADD PUSH1 0x40 MLOAD SWAP1 DUP2 ADD PUSH1 0x40 MSTORE DUP1 SWAP3 SWAP2 SWAP1 DUP2 DUP2 MSTORE PUSH1 0x20 ADD DUP3 DUP1 SLOAD PUSH2 0x268 SWAP1 PUSH2 0x73B JUMP JUMPDEST DUP1 ISZERO PUSH2 0x2B3 JUMPI DUP1 PUSH1 0x1F LT PUSH2 0x28A JUMPI PUSH2 0x100 DUP1 DUP4 SLOAD DIV MUL DUP4 MSTORE SWAP2 PUSH1 0x20 ADD SWAP2 PUSH2 0x2B3 JUMP JUMPDEST DUP3 ADD SWAP2 SWAP1 PUSH0 MSTORE PUSH1 0x20 PUSH0 KECCAK256 SWAP1 JUMPDEST DUP2 SLOAD DUP2 MSTORE SWAP1 PUSH1 0x1 ADD SWAP1 PUSH1 0x20 ADD DUP1 DUP4 GT PUSH2 0x296 JUMPI DUP3 SWAP1 SUB PUSH1 0x1F AND DUP3 ADD SWAP2 JUMPDEST POP POP POP POP POP SWAP1 DUP1 PUSH1 0x2 ADD PUSH0 SWAP1 SLOAD SWAP1 PUSH2 0x100 EXP SWAP1 DIV PUSH1 0xFF AND SWAP1 POP DUP4 JUMP JUMPDEST DUP1 PUSH0 DUP2 SWAP1 SSTORE POP POP JUMP JUMPDEST PUSH1 0x2 DUP2 DUP1 MLOAD PUSH1 0x20 DUP2 ADD DUP3 ADD DUP1 MLOAD DUP5 DUP3 MSTORE PUSH1 0x20 DUP4 ADD PUSH1 0x20 DUP6 ADD KECCAK256 DUP2 DUP4 MSTORE DUP1 SWAP6 POP POP POP POP POP POP PUSH0 SWAP2 POP SWAP1 POP DUP1 PUSH0 ADD SLOAD SWAP1 DUP1 PUSH1 0x1 ADD DUP1 SLOAD PUSH2 0x315 SWAP1 PUSH2 0x73B JUMP JUMPDEST DUP1 PUSH1 0x1F ADD PUSH1 0x20 DUP1 SWAP2 DIV MUL PUSH1 0x20 ADD PUSH1 0x40 MLOAD SWAP1 DUP2 ADD PUSH1 0x40 MSTORE DUP1 SWAP3 SWAP2 SWAP1 DUP2 DUP2 MSTORE PUSH1 0x20 ADD DUP3 DUP1 SLOAD PUSH2 0x341 SWAP1 PUSH2 0x73B JUMP JUMPDEST DUP1 ISZERO PUSH2 0x38C JUMPI DUP1 PUSH1 0x1F LT PUSH2 0x363 JUMPI PUSH2 0x100 DUP1 DUP4 SLOAD DIV MUL DUP4 MSTORE SWAP2 PUSH1 0x20 ADD SWAP2 PUSH2 0x38C JUMP JUMPDEST DUP3 ADD SWAP2 SWAP1 PUSH0 MSTORE PUSH1 0x20 PUSH0 KECCAK256 SWAP1 JUMPDEST DUP2 SLOAD DUP2 MSTORE SWAP1 PUSH1 0x1 ADD SWAP1 PUSH1 0x20 ADD DUP1 DUP4 GT PUSH2 0x36F JUMPI DUP3 SWAP1 SUB PUSH1 0x1F AND DUP3 ADD SWAP2 JUMPDEST POP POP POP POP POP SWAP1 DUP1 PUSH1 0x2 ADD PUSH0 SWAP1 SLOAD SWAP1 PUSH2 0x100 EXP SWAP1 DIV PUSH1 0xFF AND SWAP1 POP DUP4 JUMP JUMPDEST PUSH0 PUSH1 0x40 MLOAD SWAP1 POP SWAP1 JUMP JUMPDEST PUSH0 DUP1 REVERT JUMPDEST PUSH0 DUP1 REVERT JUMPDEST PUSH0 DUP1 REVERT JUMPDEST PUSH0 DUP1 REVERT JUMPDEST PUSH0 PUSH1 0x1F NOT PUSH1 0x1F DUP4 ADD AND SWAP1 POP SWAP2 SWAP1 POP JUMP JUMPDEST PUSH32 0x4E487B7100000000000000000000000000000000000000000000000000000000 PUSH0 MSTORE PUSH1 0x41 PUSH1 0x4 MSTORE PUSH1 0x24 PUSH0 REVERT JUMPDEST PUSH2 0x407 DUP3 PUSH2 0x3C1 JUMP JUMPDEST DUP2 ADD DUP2 DUP2 LT PUSH8 0xFFFFFFFFFFFFFFFF DUP3 GT OR ISZERO PUSH2 0x426 JUMPI PUSH2 0x425 PUSH2 0x3D1 JUMP JUMPDEST JUMPDEST DUP1 PUSH1 0x40 MSTORE POP POP POP JUMP JUMPDEST PUSH0 PUSH2 0x438 PUSH2 0x3A8 JUMP JUMPDEST SWAP1 POP PUSH2 0x444 DUP3 DUP3 PUSH2 0x3FE JUMP JUMPDEST SWAP2 SWAP1 POP JUMP JUMPDEST PUSH0 PUSH8 0xFFFFFFFFFFFFFFFF DUP3 GT ISZERO PUSH2 0x463 JUMPI PUSH2 0x462 PUSH2 0x3D1 JUMP JUMPDEST JUMPDEST PUSH2 0x46C DUP3 PUSH2 0x3C1 JUMP JUMPDEST SWAP1 POP PUSH1 0x20 DUP2 ADD SWAP1 POP SWAP2 SWAP1 POP JUMP JUMPDEST DUP3 DUP2 DUP4 CALLDATACOPY PUSH0 DUP4 DUP4 ADD MSTORE POP POP POP JUMP JUMPDEST PUSH0 PUSH2 0x499 PUSH2 0x494 DUP5 PUSH2 0x449 JUMP JUMPDEST PUSH2 0x42F JUMP JUMPDEST SWAP1 POP DUP3 DUP2 MSTORE PUSH1 0x20 DUP2 ADD DUP5 DUP5 DUP5 ADD GT ISZERO PUSH2 0x4B5 JUMPI PUSH2 0x4B4 PUSH2 0x3BD JUMP JUMPDEST JUMPDEST PUSH2 0x4C0 DUP5 DUP3 DUP6 PUSH2 0x479 JUMP JUMPDEST POP SWAP4 SWAP3 POP POP POP JUMP JUMPDEST PUSH0 DUP3 PUSH1 0x1F DUP4 ADD SLT PUSH2 0x4DC JUMPI PUSH2 0x4DB PUSH2 0x3B9 JUMP JUMPDEST JUMPDEST DUP2 CALLDATALOAD PUSH2 0x4EC DUP5 DUP3 PUSH1 0x20 DUP7 ADD PUSH2 0x487 JUMP JUMPDEST SWAP2 POP POP SWAP3 SWAP2 POP POP JUMP JUMPDEST PUSH0 DUP2 SWAP1 POP SWAP2 SWAP1 POP JUMP JUMPDEST PUSH2 0x507 DUP2 PUSH2 0x4F5 JUMP JUMPDEST DUP2 EQ PUSH2 0x511 JUMPI PUSH0 DUP1 REVERT JUMPDEST POP JUMP JUMPDEST PUSH0 DUP2 CALLDATALOAD SWAP1 POP PUSH2 0x522 DUP2 PUSH2 0x4FE JUMP JUMPDEST SWAP3 SWAP2 POP POP JUMP JUMPDEST PUSH0 DUP2 ISZERO ISZERO SWAP1 POP SWAP2 SWAP1 POP JUMP JUMPDEST PUSH2 0x53C DUP2 PUSH2 0x528 JUMP JUMPDEST DUP2 EQ PUSH2 0x546 JUMPI PUSH0 DUP1 REVERT JUMPDEST POP JUMP JUMPDEST PUSH0 DUP2 CALLDATALOAD SWAP1 POP PUSH2 0x557 DUP2 PUSH2 0x533 JUMP JUMPDEST SWAP3 SWAP2 POP POP JUMP JUMPDEST PUSH0 DUP1 PUSH0 PUSH1 0x60 DUP5 DUP7 SUB SLT ISZERO PUSH2 0x574 JUMPI PUSH2 0x573 PUSH2 0x3B1 JUMP JUMPDEST JUMPDEST PUSH0 DUP5 ADD CALLDATALOAD PUSH8 0xFFFFFFFFFFFFFFFF DUP2 GT ISZERO PUSH2 0x591 JUMPI PUSH2 0x590 PUSH2 0x3B5 JUMP JUMPDEST JUMPDEST PUSH2 0x59D DUP7 DUP3 DUP8 ADD PUSH2 0x4C8 JUMP JUMPDEST SWAP4 POP POP PUSH1 0x20 PUSH2 0x5AE DUP7 DUP3 DUP8 ADD PUSH2 0x514 JUMP JUMPDEST SWAP3 POP POP PUSH1 0x40 PUSH2 0x5BF DUP7 DUP3 DUP8 ADD PUSH2 0x549 JUMP JUMPDEST SWAP2 POP POP SWAP3 POP SWAP3 POP SWAP3 JUMP JUMPDEST PUSH2 0x5D2 DUP2 PUSH2 0x4F5 JUMP JUMPDEST DUP3 MSTORE POP POP JUMP JUMPDEST PUSH0 PUSH1 0x20 DUP3 ADD SWAP1 POP PUSH2 0x5EB PUSH0 DUP4 ADD DUP5 PUSH2 0x5C9 JUMP JUMPDEST SWAP3 SWAP2 POP POP JUMP JUMPDEST PUSH0 PUSH1 0x20 DUP3 DUP5 SUB SLT ISZERO PUSH2 0x606 JUMPI PUSH2 0x605 PUSH2 0x3B1 JUMP JUMPDEST JUMPDEST PUSH0 PUSH2 0x613 DUP5 DUP3 DUP6 ADD PUSH2 0x514 JUMP JUMPDEST SWAP2 POP POP SWAP3 SWAP2 POP POP JUMP JUMPDEST PUSH0 DUP2 MLOAD SWAP1 POP SWAP2 SWAP1 POP JUMP JUMPDEST PUSH0 DUP3 DUP3 MSTORE PUSH1 0x20 DUP3 ADD SWAP1 POP SWAP3 SWAP2 POP POP JUMP JUMPDEST DUP3 DUP2 DUP4 MCOPY PUSH0 DUP4 DUP4 ADD MSTORE POP POP POP JUMP JUMPDEST PUSH0 PUSH2 0x64E DUP3 PUSH2 0x61C JUMP JUMPDEST PUSH2 0x658 DUP2 DUP6 PUSH2 0x626 JUMP JUMPDEST SWAP4 POP PUSH2 0x668 DUP2 DUP6 PUSH1 0x20 DUP7 ADD PUSH2 0x636 JUMP JUMPDEST PUSH2 0x671 DUP2 PUSH2 0x3C1 JUMP JUMPDEST DUP5 ADD SWAP2 POP POP SWAP3 SWAP2 POP POP JUMP JUMPDEST PUSH2 0x685 DUP2 PUSH2 0x528 JUMP JUMPDEST DUP3 MSTORE POP POP JUMP JUMPDEST PUSH0 PUSH1 0x60 DUP3 ADD SWAP1 POP PUSH2 0x69E PUSH0 DUP4 ADD DUP7 PUSH2 0x5C9 JUMP JUMPDEST DUP2 DUP2 SUB PUSH1 0x20 DUP4 ADD MSTORE PUSH2 0x6B0 DUP2 DUP6 PUSH2 0x644 JUMP JUMPDEST SWAP1 POP PUSH2 0x6BF PUSH1 0x40 DUP4 ADD DUP5 PUSH2 0x67C JUMP JUMPDEST SWAP5 SWAP4 POP POP POP POP JUMP JUMPDEST PUSH0 PUSH1 0x20 DUP3 DUP5 SUB SLT ISZERO PUSH2 0x6DC JUMPI PUSH2 0x6DB PUSH2 0x3B1 JUMP JUMPDEST JUMPDEST PUSH0 DUP3 ADD CALLDATALOAD PUSH8 0xFFFFFFFFFFFFFFFF DUP2 GT ISZERO PUSH2 0x6F9 JUMPI PUSH2 0x6F8 PUSH2 0x3B5 JUMP JUMPDEST JUMPDEST PUSH2 0x705 DUP5 DUP3 DUP6 ADD PUSH2 0x4C8 JUMP JUMPDEST SWAP2 POP POP SWAP3 SWAP2 POP POP JUMP JUMPDEST PUSH32 0x4E487B7100000000000000000000000000000000000000000000000000000000 PUSH0 MSTORE PUSH1 0x22 PUSH1 0x4 MSTORE PUSH1 0x24 PUSH0 REVERT JUMPDEST PUSH0 PUSH1 0x2 DUP3 DIV SWAP1 POP PUSH1 0x1 DUP3 AND DUP1 PUSH2 0x752 JUMPI PUSH1 0x7F DUP3 AND SWAP2 POP JUMPDEST PUSH1 0x20 DUP3 LT DUP2 SUB PUSH2 0x765 JUMPI PUSH2 0x764 PUSH2 0x70E JUMP JUMPDEST JUMPDEST POP SWAP2 SWAP1 POP JUMP JUMPDEST PUSH0 DUP2 SWAP1 POP DUP2 PUSH0 MSTORE PUSH1 0x20 PUSH0 KECCAK256 SWAP1 POP SWAP2 SWAP1 POP JUMP JUMPDEST PUSH0 PUSH1 0x20 PUSH1 0x1F DUP4 ADD DIV SWAP1 POP SWAP2 SWAP1 POP JUMP JUMPDEST PUSH0 DUP3 DUP3 SHL SWAP1 POP SWAP3 SWAP2 POP POP JUMP JUMPDEST PUSH0 PUSH1 0x8 DUP4 MUL PUSH2 0x7C7 PUSH32 0xFFFFFFFFFFFFFFFFFFFFFFFFFFFFFFFFFFFFFFFFFFFFFFFFFFFFFFFFFFFFFFFF DUP3 PUSH2 0x78C JUMP JUMPDEST PUSH2 0x7D1 DUP7 DUP4 PUSH2 0x78C JUMP JUMPDEST SWAP6 POP DUP1 NOT DUP5 AND SWAP4 POP DUP1 DUP7 AND DUP5 OR SWAP3 POP POP POP SWAP4 SWAP3 POP POP POP JUMP JUMPDEST PUSH0 DUP2 SWAP1 POP SWAP2 SWAP1 POP JUMP JUMPDEST PUSH0 PUSH2 0x80C PUSH2 0x807 PUSH2 0x802 DUP5 PUSH2 0x4F5 JUMP JUMPDEST PUSH2 0x7E9 JUMP JUMPDEST PUSH2 0x4F5 JUMP JUMPDEST SWAP1 POP SWAP2 SWAP1 POP JUMP JUMPDEST PUSH0 DUP2 SWAP1 POP SWAP2 SWAP1 POP JUMP JUMPDEST PUSH2 0x825 DUP4 PUSH2 0x7F2 JUMP JUMPDEST PUSH2 0x839 PUSH2 0x831 DUP3 PUSH2 0x813 JUMP JUMPDEST DUP5 DUP5 SLOAD PUSH2 0x798 JUMP JUMPDEST DUP3 SSTORE POP POP POP POP JUMP JUMPDEST PUSH0 SWAP1 JUMP JUMPDEST PUSH2 0x84D PUSH2 0x841 JUMP JUMPDEST PUSH2 0x858 DUP2 DUP5 DUP5 PUSH2 0x81C JUMP JUMPDEST POP POP POP JUMP JUMPDEST JUMPDEST DUP2 DUP2 LT ISZERO PUSH2 0x87B JUMPI PUSH2 0x870 PUSH0 DUP3 PUSH2 0x845 JUMP JUMPDEST PUSH1 0x1 DUP2 ADD SWAP1 POP PUSH2 0x85E JUMP JUMPDEST POP POP JUMP JUMPDEST PUSH1 0x1F DUP3 GT ISZERO PUSH2 0x8C0 JUMPI PUSH2 0x891 DUP2 PUSH2 0x76B JUMP JUMPDEST PUSH2 0x89A DUP5 PUSH2 0x77D JUMP JUMPDEST DUP2 ADD PUSH1 0x20 DUP6 LT ISZERO PUSH2 0x8A9 JUMPI DUP2 SWAP1 POP JUMPDEST PUSH2 0x8BD PUSH2 0x8B5 DUP6 PUSH2 0x77D JUMP JUMPDEST DUP4 ADD DUP3 PUSH2 0x85D JUMP JUMPDEST POP POP JUMPDEST POP POP POP JUMP JUMPDEST PUSH0 DUP3 DUP3 SHR SWAP1 POP SWAP3 SWAP2 POP POP JUMP JUMPDEST PUSH0 PUSH2 0x8E0 PUSH0 NOT DUP5 PUSH1 0x8 MUL PUSH2 0x8C5 JUMP JUMPDEST NOT DUP1 DUP4 AND SWAP2 POP POP SWAP3 SWAP2 POP POP JUMP JUMPDEST PUSH0 PUSH2 0x8F8 DUP4 DUP4 PUSH2 0x8D1 JUMP JUMPDEST SWAP2 POP DUP3 PUSH1 0x2 MUL DUP3 OR SWAP1 POP SWAP3 SWAP2 POP POP JUMP JUMPDEST PUSH2 0x911 DUP3 PUSH2 0x61C JUMP JUMPDEST PUSH8 0xFFFFFFFFFFFFFFFF DUP2 GT ISZERO PUSH2 0x92A JUMPI PUSH2 0x929 PUSH2 0x3D1 JUMP JUMPDEST JUMPDEST PUSH2 0x934 DUP3 SLOAD PUSH2 0x73B JUMP JUMPDEST PUSH2 0x93F DUP3 DUP3 DUP6 PUSH2 0x87F JUMP JUMPDEST PUSH0 PUSH1 0x20 SWAP1 POP PUSH1 0x1F DUP4 GT PUSH1 0x1 DUP2 EQ PUSH2 0x970 JUMPI PUSH0 DUP5 ISZERO PUSH2 0x95E JUMPI DUP3 DUP8 ADD MLOAD SWAP1 POP JUMPDEST PUSH2 0x968 DUP6 DUP3 PUSH2 0x8ED JUMP JUMPDEST DUP7 SSTORE POP PUSH2 0x9CF JUMP JUMPDEST PUSH1 0x1F NOT DUP5 AND PUSH2 0x97E DUP7 PUSH2 0x76B JUMP JUMPDEST PUSH0 JUMPDEST DUP3 DUP2 LT ISZERO PUSH2 0x9A5 JUMPI DUP5 DUP10 ADD MLOAD DUP3 SSTORE PUSH1 0x1 DUP3 ADD SWAP2 POP PUSH1 0x20 DUP6 ADD SWAP5 POP PUSH1 0x20 DUP2 ADD SWAP1 POP PUSH2 0x980 JUMP JUMPDEST DUP7 DUP4 LT ISZERO PUSH2 0x9C2 JUMPI DUP5 DUP10 ADD MLOAD PUSH2 0x9BE PUSH1 0x1F DUP10 AND DUP3 PUSH2 0x8D1 JUMP JUMPDEST DUP4 SSTORE POP JUMPDEST PUSH1 0x1 PUSH1 0x2 DUP9 MUL ADD DUP9 SSTORE POP POP POP JUMPDEST POP POP POP POP POP POP JUMP JUMPDEST PUSH0 DUP2 SWAP1 POP SWAP3 SWAP2 POP POP JUMP JUMPDEST PUSH0 PUSH2 0x9EB DUP3 PUSH2 0x61C JUMP JUMPDEST PUSH2 0x9F5 DUP2 DUP6 PUSH2 0x9D7 JUMP JUMPDEST SWAP4 POP PUSH2 0xA05 DUP2 DUP6 PUSH1 0x20 DUP7 ADD PUSH2 0x636 JUMP JUMPDEST DUP1 DUP5 ADD SWAP2 POP POP SWAP3 SWAP2 POP POP JUMP JUMPDEST PUSH0 PUSH2 0xA1C DUP3 DUP5 PUSH2 0x9E1 JUMP JUMPDEST SWAP2 POP DUP2 SWAP1 POP SWAP3 SWAP2 POP POP JUMP INVALID LOG2 PUSH5 0x6970667358 0x22 SLT KECCAK256 DUP13 NOT CALLDATASIZE 0x2D GASLIMIT PUSH17 0x26C518571D4E8700C576B5597235B21311 LOG4 SWAP1 0xAE 0xA9 DUP7 DUP8 SAR STOP 0xFB PUSH5 0x736F6C6343 STOP ADDMOD BYTE STOP CALLER LOG2 PUSH5 0x6970667358 0x22 SLT KECCAK256 0xC5 0xE8 ADDRESS 0xCE 0xBE 0xE5 SLT PUSH16 0xE428977E22555B7E157AED9138749BE0 0xC1 0xC6 DELEGATECALL DUP8 RETURNDATACOPY 0xB6 STATICCALL PUSH12 0x64736F6C634300081A003300 "
		},
		"gasEstimates": {
			"creation": {
				"codeDepositCost": "625600",
				"executionCost": "655",
				"totalCost": "626255"
			},
			"external": {
				"createSimpleStorageContract()": "infinite",
				"simpleStorage()": "infinite"
			}
		},
		"methodIdentifiers": {
			"createSimpleStorageContract()": "1dda6541",
			"simpleStorage()": "6be0d6bf"
		}
	},
	"abi": [
		{
			"inputs": [],
			"name": "createSimpleStorageContract",
			"outputs": [],
			"stateMutability": "nonpayable",
			"type": "function"
		},
		{
			"inputs": [],
			"name": "simpleStorage",
			"outputs": [
				{
					"internalType": "contract SimpleStorage",
					"name": "",
					"type": "address"
				}
			],
			"stateMutability": "view",
			"type": "function"
		}
	]
}